{
  "abi": [
    {
      "inputs": [
        {
          "internalType": "contract BorealisToken",
          "name": "_bore",
          "type": "address"
        },
        {
          "internalType": "address",
          "name": "_devAddr",
          "type": "address"
        },
        {
          "internalType": "uint256",
          "name": "_boreStartBlock",
          "type": "uint256"
        },
        {
          "internalType": "uint256",
          "name": "_startBlock",
          "type": "uint256"
        },
        {
          "internalType": "uint256",
          "name": "_bonusEndBlock",
          "type": "uint256"
        },
        {
          "internalType": "uint256",
          "name": "_bonusBeforeBulkBlockSize",
          "type": "uint256"
        },
        {
          "internalType": "uint256",
          "name": "_bonusBeforeCommonDifference",
          "type": "uint256"
        },
        {
          "internalType": "uint256",
          "name": "_bonusEndCommonDifference",
          "type": "uint256"
        }
      ],
      "stateMutability": "nonpayable",
      "type": "constructor"
    },
    {
      "anonymous": false,
      "inputs": [
        {
          "indexed": true,
          "internalType": "address",
          "name": "user",
          "type": "address"
        },
        {
          "indexed": true,
          "internalType": "address",
          "name": "poolAddress",
          "type": "address"
        },
        {
          "indexed": false,
          "internalType": "uint256",
          "name": "amount",
          "type": "uint256"
        }
      ],
      "name": "Deposit",
      "type": "event"
    },
    {
      "anonymous": false,
      "inputs": [
        {
          "indexed": true,
          "internalType": "address",
          "name": "user",
          "type": "address"
        },
        {
          "indexed": true,
          "internalType": "address",
          "name": "poolAddress",
          "type": "address"
        },
        {
          "indexed": false,
          "internalType": "uint256",
          "name": "amount",
          "type": "uint256"
        }
      ],
      "name": "EmergencyWithdraw",
      "type": "event"
    },
    {
      "anonymous": false,
      "inputs": [
        {
          "indexed": true,
          "internalType": "address",
          "name": "previousOwner",
          "type": "address"
        },
        {
          "indexed": true,
          "internalType": "address",
          "name": "newOwner",
          "type": "address"
        }
      ],
      "name": "OwnershipTransferred",
      "type": "event"
    },
    {
      "anonymous": false,
      "inputs": [
        {
          "indexed": true,
          "internalType": "address",
          "name": "user",
          "type": "address"
        },
        {
          "indexed": true,
          "internalType": "address",
          "name": "poolAddress",
          "type": "address"
        },
        {
          "indexed": false,
          "internalType": "uint256",
          "name": "amount",
          "type": "uint256"
        }
      ],
      "name": "Withdraw",
      "type": "event"
    },
    {
      "inputs": [],
      "name": "accborePerShareMultiple",
      "outputs": [
        {
          "internalType": "uint256",
          "name": "",
          "type": "uint256"
        }
      ],
      "stateMutability": "view",
      "type": "function"
    },
    {
      "inputs": [
        {
          "internalType": "uint256",
          "name": "_allocPoint",
          "type": "uint256"
        },
        {
          "internalType": "address",
          "name": "_pair",
          "type": "address"
        },
        {
          "internalType": "bool",
          "name": "_withUpdate",
          "type": "bool"
        }
      ],
      "name": "add",
      "outputs": [],
      "stateMutability": "nonpayable",
      "type": "function"
    },
    {
      "inputs": [],
      "name": "bonusBeforeBulkBlockSize",
      "outputs": [
        {
          "internalType": "uint256",
          "name": "",
          "type": "uint256"
        }
      ],
      "stateMutability": "view",
      "type": "function"
    },
    {
      "inputs": [],
      "name": "bonusBeforeCommonDifference",
      "outputs": [
        {
          "internalType": "uint256",
          "name": "",
          "type": "uint256"
        }
      ],
      "stateMutability": "view",
      "type": "function"
    },
    {
      "inputs": [],
      "name": "bonusEndBlock",
      "outputs": [
        {
          "internalType": "uint256",
          "name": "",
          "type": "uint256"
        }
      ],
      "stateMutability": "view",
      "type": "function"
    },
    {
      "inputs": [],
      "name": "bonusEndBulkBlockSize",
      "outputs": [
        {
          "internalType": "uint256",
          "name": "",
          "type": "uint256"
        }
      ],
      "stateMutability": "view",
      "type": "function"
    },
    {
      "inputs": [],
      "name": "bonusEndCommonDifference",
      "outputs": [
        {
          "internalType": "uint256",
          "name": "",
          "type": "uint256"
        }
      ],
      "stateMutability": "view",
      "type": "function"
    },
    {
      "inputs": [],
      "name": "bore",
      "outputs": [
        {
          "internalType": "contract BorealisToken",
          "name": "",
          "type": "address"
        }
      ],
      "stateMutability": "view",
      "type": "function"
    },
    {
      "inputs": [],
      "name": "boreBonusEndBlock",
      "outputs": [
        {
          "internalType": "uint256",
          "name": "",
          "type": "uint256"
        }
      ],
      "stateMutability": "view",
      "type": "function"
    },
    {
      "inputs": [],
      "name": "boreStartBlock",
      "outputs": [
        {
          "internalType": "uint256",
          "name": "",
          "type": "uint256"
        }
      ],
      "stateMutability": "view",
      "type": "function"
    },
    {
      "inputs": [
        {
          "internalType": "address",
          "name": "_pair",
          "type": "address"
        },
        {
          "internalType": "uint256",
          "name": "_amount",
          "type": "uint256"
        }
      ],
      "name": "deposit",
      "outputs": [],
      "stateMutability": "nonpayable",
      "type": "function"
    },
    {
      "inputs": [
        {
          "internalType": "address",
          "name": "_devAddr",
          "type": "address"
        }
      ],
      "name": "dev",
      "outputs": [],
      "stateMutability": "nonpayable",
      "type": "function"
    },
    {
      "inputs": [],
      "name": "devAddr",
      "outputs": [
        {
          "internalType": "address",
          "name": "",
          "type": "address"
        }
      ],
      "stateMutability": "view",
      "type": "function"
    },
    {
      "inputs": [
        {
          "internalType": "address",
          "name": "_pair",
          "type": "address"
        }
      ],
      "name": "emergencyWithdraw",
      "outputs": [],
      "stateMutability": "nonpayable",
      "type": "function"
    },
    {
      "inputs": [
        {
          "internalType": "address",
          "name": "_pair",
          "type": "address"
        }
      ],
      "name": "existsPool",
      "outputs": [
        {
          "internalType": "bool",
          "name": "",
          "type": "bool"
        }
      ],
      "stateMutability": "view",
      "type": "function"
    },
    {
      "inputs": [
        {
          "internalType": "uint256",
          "name": "_from",
          "type": "uint256"
        },
        {
          "internalType": "uint256",
          "name": "_to",
          "type": "uint256"
        }
      ],
      "name": "getTotalRewardInfo",
      "outputs": [
        {
          "internalType": "uint256",
          "name": "totalReward",
          "type": "uint256"
        }
      ],
      "stateMutability": "view",
      "type": "function"
    },
    {
      "inputs": [
        {
          "internalType": "uint256",
          "name": "_from",
          "type": "uint256"
        },
        {
          "internalType": "uint256",
          "name": "_to",
          "type": "uint256"
        },
        {
          "internalType": "uint256",
          "name": "_boreInitBlock",
          "type": "uint256"
        },
        {
          "internalType": "uint256",
          "name": "_bulkBlockSize",
          "type": "uint256"
        },
        {
          "internalType": "uint256",
          "name": "_commonDifference",
          "type": "uint256"
        }
      ],
      "name": "getTotalRewardInfoInSameCommonDifference",
      "outputs": [
        {
          "internalType": "uint256",
          "name": "totalReward",
          "type": "uint256"
        }
      ],
      "stateMutability": "view",
      "type": "function"
    },
    {
      "inputs": [],
      "name": "massUpdatePools",
      "outputs": [],
      "stateMutability": "nonpayable",
      "type": "function"
    },
    {
      "inputs": [],
      "name": "maxRewardBlockNumber",
      "outputs": [
        {
          "internalType": "uint256",
          "name": "",
          "type": "uint256"
        }
      ],
      "stateMutability": "view",
      "type": "function"
    },
    {
      "inputs": [],
      "name": "owner",
      "outputs": [
        {
          "internalType": "address",
          "name": "",
          "type": "address"
        }
      ],
      "stateMutability": "view",
      "type": "function"
    },
    {
      "inputs": [
        {
          "internalType": "address",
          "name": "_pair",
          "type": "address"
        },
        {
          "internalType": "address",
          "name": "_user",
          "type": "address"
        }
      ],
      "name": "pendingbore",
      "outputs": [
        {
          "internalType": "uint256",
          "name": "",
          "type": "uint256"
        }
      ],
      "stateMutability": "view",
      "type": "function"
    },
    {
      "inputs": [
        {
          "internalType": "uint256",
          "name": "",
          "type": "uint256"
        }
      ],
      "name": "poolAddresses",
      "outputs": [
        {
          "internalType": "address",
          "name": "",
          "type": "address"
        }
      ],
      "stateMutability": "view",
      "type": "function"
    },
    {
      "inputs": [
        {
          "internalType": "address",
          "name": "",
          "type": "address"
        }
      ],
      "name": "poolInfoMap",
      "outputs": [
        {
          "internalType": "uint256",
          "name": "allocPoint",
          "type": "uint256"
        },
        {
          "internalType": "uint256",
          "name": "lastRewardBlock",
          "type": "uint256"
        },
        {
          "internalType": "uint256",
          "name": "accborePerShare",
          "type": "uint256"
        },
        {
          "internalType": "bool",
          "name": "exists",
          "type": "bool"
        }
      ],
      "stateMutability": "view",
      "type": "function"
    },
    {
      "inputs": [],
      "name": "poolLength",
      "outputs": [
        {
          "internalType": "uint256",
          "name": "",
          "type": "uint256"
        }
      ],
      "stateMutability": "view",
      "type": "function"
    },
    {
      "inputs": [
        {
          "internalType": "address",
          "name": "",
          "type": "address"
        },
        {
          "internalType": "address",
          "name": "",
          "type": "address"
        }
      ],
      "name": "poolUserInfoMap",
      "outputs": [
        {
          "internalType": "uint256",
          "name": "amount",
          "type": "uint256"
        },
        {
          "internalType": "uint256",
          "name": "rewardDebt",
          "type": "uint256"
        }
      ],
      "stateMutability": "view",
      "type": "function"
    },
    {
      "inputs": [],
      "name": "renounceOwnership",
      "outputs": [],
      "stateMutability": "nonpayable",
      "type": "function"
    },
    {
      "inputs": [
        {
          "internalType": "address",
          "name": "_pair",
          "type": "address"
        },
        {
          "internalType": "uint256",
          "name": "_allocPoint",
          "type": "uint256"
        },
        {
          "internalType": "bool",
          "name": "_withUpdate",
          "type": "bool"
        }
      ],
      "name": "set",
      "outputs": [],
      "stateMutability": "nonpayable",
      "type": "function"
    },
    {
      "inputs": [],
      "name": "startBlock",
      "outputs": [
        {
          "internalType": "uint256",
          "name": "",
          "type": "uint256"
        }
      ],
      "stateMutability": "view",
      "type": "function"
    },
    {
      "inputs": [],
      "name": "totalAllocPoint",
      "outputs": [
        {
          "internalType": "uint256",
          "name": "",
          "type": "uint256"
        }
      ],
      "stateMutability": "view",
      "type": "function"
    },
    {
      "inputs": [
        {
          "internalType": "address",
          "name": "newOwner",
          "type": "address"
        }
      ],
      "name": "transferOwnership",
      "outputs": [],
      "stateMutability": "nonpayable",
      "type": "function"
    },
    {
      "inputs": [
        {
          "internalType": "address",
          "name": "_pair",
          "type": "address"
        }
      ],
      "name": "updatePool",
      "outputs": [],
      "stateMutability": "nonpayable",
      "type": "function"
    },
    {
      "inputs": [
        {
          "internalType": "address",
          "name": "_pair",
          "type": "address"
        },
        {
          "internalType": "uint256",
          "name": "_amount",
          "type": "uint256"
        }
      ],
      "name": "withdraw",
      "outputs": [],
      "stateMutability": "nonpayable",
      "type": "function"
    }
  ],
  "evm": {
    "bytecode": {
      "linkReferences": {},
      "object": "6080604052600060025564e8d4a51000600b553480156200001f57600080fd5b5060405162002a4138038062002a4183398181016040526101008110156200004657600080fd5b508051602082015160408301516060840151608085015160a086015160c087015160e09097015195969495939492939192909160006200008e6001600160e01b036200028516565b600080546001600160a01b0319166001600160a01b0383169081178255604051929350917f8be0079c531659141344cd1fd0a4f28419497f9722a3daafe3b4186f6b6457e0908290a350600c80546001600160a01b03199081166001600160a01b038b811691909117909255600d805490911691891691909117905560018690556003859055600484905560058390556009829055600a81905562000140848662000289602090811b620019eb17901c565b600681905550620001ff600654620001ac6200016f600554600654620002dc60201b62001b141790919060201c565b620001d4600554620001d4620001e8600954620001d46001620001c0600554620001ac6003546004546200028960201b620019eb1790919060201c565b620002dc60201b62001b141790919060201c565b6200028960201b620019eb1790919060201c565b6200032660201b62001aa11790919060201c565b6001546200028960201b620019eb1790919060201c565b600781905550620002736200025c62000245600162000231600a54600754620002dc60201b62001b141790919060201c565b6200038460201b62001a2d1790919060201c565b6006546200032660201b62001aa11790919060201c565b6003546200038460201b62001a2d1790919060201c565b60085550620004e39650505050505050565b3390565b6000620002d383836040518060400160405280601e81526020017f536166654d6174683a207375627472616374696f6e206f766572666c6f770000815250620003df60201b60201c565b90505b92915050565b6000620002d383836040518060400160405280601a81526020017f536166654d6174683a206469766973696f6e206279207a65726f0000000000008152506200047a60201b60201c565b6000826200033757506000620002d6565b828202828482816200034557fe5b0414620002d35760405162461bcd60e51b815260040180806020018281038252602181526020018062002a206021913960400191505060405180910390fd5b600082820183811015620002d3576040805162461bcd60e51b815260206004820152601b60248201527f536166654d6174683a206164646974696f6e206f766572666c6f770000000000604482015290519081900360640190fd5b60008184841115620004725760405162461bcd60e51b81526004018080602001828103825283818151815260200191508051906020019080838360005b83811015620004365781810151838201526020016200041c565b50505050905090810190601f168015620004645780820380516001836020036101000a031916815260200191505b509250505060405180910390fd5b505050900390565b60008183620004cc5760405162461bcd60e51b8152602060048201818152835160248401528351909283926044909101919085019080838360008315620004365781810151838201526020016200041c565b506000838581620004d957fe5b0495945050505050565b61252d80620004f36000396000f3fe608060405234801561001057600080fd5b50600436106101f05760003560e01c8063715018a61161010f578063ca53d31a116100a2578063e483c80311610071578063e483c8031461058f578063f2fde38b14610597578063f3fef3a3146105ca578063feb21b9c14610603576101f0565b8063ca53d31a1461053c578063cedbcf2714610577578063d1b2a9771461057f578063da09c72c14610587576101f0565b80639e529dff116100de5780639e529dff146104ef578063a55b9207146104f7578063a5f8d4e61461052c578063c97ab21a14610534576101f0565b8063715018a6146104505780637b46c54f146104585780638d88a90e1461048b5780638da5cb5b146104be576101f0565b80632d3f7fcb1161018757806348cd4cb11161015657806348cd4cb1146103c657806361235c7b146103ce578063630b5ba1146104155780636ff1c9bc1461041d576101f0565b80632d3f7fcb1461030e578063349e2cc61461031657806334ace4171461033957806347e7ef241461038d576101f0565b806317caf6f1116101c357806317caf6f1146102b55780631aed6553146102bd5780631eaaa045146102c5578063218c3e8d14610306576101f0565b8063081e3eda146101f55780630b1391941461020f578063114b338b146102525780631218c5981461025a575b600080fd5b6101fd610620565b60408051918252519081900360200190f35b6102506004803603606081101561022557600080fd5b5073ffffffffffffffffffffffffffffffffffffffff81351690602081013590604001351515610626565b005b6101fd61078e565b61028d6004803603602081101561027057600080fd5b503573ffffffffffffffffffffffffffffffffffffffff16610794565b6040805194855260208501939093528383019190915215156060830152519081900360800190f35b6101fd6107be565b6101fd6107c4565b610250600480360360608110156102db57600080fd5b5080359073ffffffffffffffffffffffffffffffffffffffff602082013516906040013515156107ca565b6101fd6109e8565b6101fd6109ee565b6101fd6004803603604081101561032c57600080fd5b50803590602001356109f4565b6103746004803603604081101561034f57600080fd5b5073ffffffffffffffffffffffffffffffffffffffff81358116916020013516610a6b565b6040805192835260208301919091528051918290030190f35b610250600480360360408110156103a357600080fd5b5073ffffffffffffffffffffffffffffffffffffffff8135169060200135610a8f565b6101fd610bde565b610401600480360360208110156103e457600080fd5b503573ffffffffffffffffffffffffffffffffffffffff16610be4565b604080519115158252519081900360200190f35b610250610c12565b6102506004803603602081101561043357600080fd5b503573ffffffffffffffffffffffffffffffffffffffff16610c63565b610250610d05565b6102506004803603602081101561046e57600080fd5b503573ffffffffffffffffffffffffffffffffffffffff16610e05565b610250600480360360208110156104a157600080fd5b503573ffffffffffffffffffffffffffffffffffffffff166110d1565b6104c661119e565b6040805173ffffffffffffffffffffffffffffffffffffffff9092168252519081900360200190f35b6101fd6111ba565b6101fd600480360360a081101561050d57600080fd5b50803590602081013590604081013590606081013590608001356111c0565b6101fd61153a565b6101fd611540565b6101fd6004803603604081101561055257600080fd5b5073ffffffffffffffffffffffffffffffffffffffff81358116916020013516611546565b6101fd61172e565b6101fd611734565b6104c661173a565b6104c6611756565b610250600480360360208110156105ad57600080fd5b503573ffffffffffffffffffffffffffffffffffffffff16611772565b610250600480360360408110156105e057600080fd5b5073ffffffffffffffffffffffffffffffffffffffff813516906020013561180c565b6104c66004803603602081101561061957600080fd5b50356119b3565b600e5490565b61062e6119e7565b60005473ffffffffffffffffffffffffffffffffffffffff9081169116146106b757604080517f08c379a000000000000000000000000000000000000000000000000000000000815260206004820181905260248201527f4f776e61626c653a2063616c6c6572206973206e6f7420746865206f776e6572604482015290519081900360640190fd5b80156106c5576106c5610c12565b73ffffffffffffffffffffffffffffffffffffffff83166000908152600f60205260409020600381015460ff1661075d57604080517f08c379a000000000000000000000000000000000000000000000000000000000815260206004820152600f60248201527f706f6f6c206e6f74206578697374730000000000000000000000000000000000604482015290519081900360640190fd5b80546002546107839185916107779163ffffffff6119eb16565b9063ffffffff611a2d16565b600255919091555050565b600a5481565b600f6020526000908152604090208054600182015460028301546003909301549192909160ff1684565b60025481565b60045481565b6107d26119e7565b60005473ffffffffffffffffffffffffffffffffffffffff90811691161461085b57604080517f08c379a000000000000000000000000000000000000000000000000000000000815260206004820181905260248201527f4f776e61626c653a2063616c6c6572206973206e6f7420746865206f776e6572604482015290519081900360640190fd5b801561086957610869610c12565b73ffffffffffffffffffffffffffffffffffffffff82166000908152600f60205260409020600381015460ff161561090257604080517f08c379a000000000000000000000000000000000000000000000000000000000815260206004820152601360248201527f706f6f6c20616c72656164792065786973747300000000000000000000000000604482015290519081900360640190fd5b6000600354431161091557600354610917565b435b60025490915061092d908663ffffffff611a2d16565b60029081559482556001808301919091556000948201859055600390910180547fffffffffffffffffffffffffffffffffffffffffffffffffffffffffffffff001682179055600e80549182018155909352507fbb7b4a454dc3493923482f07822329ed19e8244eff582cc204f8554c3620c3fd90910180547fffffffffffffffffffffffff00000000000000000000000000000000000000001673ffffffffffffffffffffffffffffffffffffffff909216919091179055565b60075481565b60055481565b60006004548211610a1957610a1283836001546005546009546111c0565b9050610a65565b6004548310610a3557610a128383600754600654600a546111c0565b610a62610a4d60045484600754600654600a546111c0565b610777856004546001546005546009546111c0565b90505b92915050565b60106020908152600092835260408084209091529082529020805460019091015482565b73ffffffffffffffffffffffffffffffffffffffff82166000908152600f6020908152604080832060108352818420338552909252909120610ad084610e05565b805415610b2e576000610b1a8260010154610b0e600b54610b0287600201548760000154611aa190919063ffffffff16565b9063ffffffff611b1416565b9063ffffffff6119eb16565b90508015610b2c57610b2c3382611b56565b505b610b5673ffffffffffffffffffffffffffffffffffffffff851633308663ffffffff611d5916565b8054610b68908463ffffffff611a2d16565b808255600b546002840154610b8692610b029163ffffffff611aa116565b600182015560408051848152905173ffffffffffffffffffffffffffffffffffffffff86169133917f5548c837ab068cf56a2c2479df0882a4922fd203edb7517321831d95078c5f629181900360200190a350505050565b60035481565b73ffffffffffffffffffffffffffffffffffffffff166000908152600f602052604090206003015460ff1690565b600e5460005b81811015610c5f57610c57600e8281548110610c3057fe5b60009182526020909120015473ffffffffffffffffffffffffffffffffffffffff16610e05565b600101610c18565b5050565b73ffffffffffffffffffffffffffffffffffffffff8116600081815260106020908152604080832033808552925290912080549092610ca992909163ffffffff611df416565b8054604080519182525173ffffffffffffffffffffffffffffffffffffffff84169133917ff24ef89f38eadc1bde50701ad6e4d6d11a2dc24f7cf834a486991f38833285049181900360200190a3600080825560019091015550565b610d0d6119e7565b60005473ffffffffffffffffffffffffffffffffffffffff908116911614610d9657604080517f08c379a000000000000000000000000000000000000000000000000000000000815260206004820181905260248201527f4f776e61626c653a2063616c6c6572206973206e6f7420746865206f776e6572604482015290519081900360640190fd5b6000805460405173ffffffffffffffffffffffffffffffffffffffff909116907f8be0079c531659141344cd1fd0a4f28419497f9722a3daafe3b4186f6b6457e0908390a3600080547fffffffffffffffffffffffff0000000000000000000000000000000000000000169055565b73ffffffffffffffffffffffffffffffffffffffff81166000908152600f60205260409020600381015460ff161580610e42575080600101544311155b15610e4d57506110ce565b604080517f70a08231000000000000000000000000000000000000000000000000000000008152306004820152905160009173ffffffffffffffffffffffffffffffffffffffff8516916370a0823191602480820192602092909190829003018186803b158015610ebd57600080fd5b505afa158015610ed1573d6000803e3d6000fd5b505050506040513d6020811015610ee757600080fd5b5051905080610efd5750436001909101556110ce565b600854826001015410610f115750506110ce565b6000610f218360010154436109f4565b90506000610f42600254610b02866000015485611aa190919063ffffffff16565b600c54600d5491925073ffffffffffffffffffffffffffffffffffffffff9081169163449a52f89116610f7c84606463ffffffff611b1416565b6040518363ffffffff1660e01b8152600401808373ffffffffffffffffffffffffffffffffffffffff1673ffffffffffffffffffffffffffffffffffffffff16815260200182815260200192505050600060405180830381600087803b158015610fe557600080fd5b505af1158015610ff9573d6000803e3d6000fd5b5050600c54604080517f449a52f800000000000000000000000000000000000000000000000000000000815230600482015260248101869052905173ffffffffffffffffffffffffffffffffffffffff909216935063449a52f8925060448082019260009290919082900301818387803b15801561107657600080fd5b505af115801561108a573d6000803e3d6000fd5b505050506110bb6110aa84610b02600b5485611aa190919063ffffffff16565b60028601549063ffffffff611a2d16565b6002850155505043600190920191909155505b50565b600d5473ffffffffffffffffffffffffffffffffffffffff16331461115757604080517f08c379a000000000000000000000000000000000000000000000000000000000815260206004820152600960248201527f6465763a207775743f0000000000000000000000000000000000000000000000604482015290519081900360640190fd5b600d80547fffffffffffffffffffffffff00000000000000000000000000000000000000001673ffffffffffffffffffffffffffffffffffffffff92909216919091179055565b60005473ffffffffffffffffffffffffffffffffffffffff1690565b60015481565b60006003548510806111d457508560085411155b156111e157506000611531565b6003548610156111f15760035495505b8460085410156112015760085494505b6000611258600061122d866112216003548b6119eb90919063ffffffff16565b9063ffffffff611e8116565b1161123957600061123c565b60015b60ff1661077786610b026003548b6119eb90919063ffffffff16565b90506001811015611267575060015b60006112b26000611287876112216003548d6119eb90919063ffffffff16565b11611293576000611296565b60015b60ff1661077787610b026003548d6119eb90919063ffffffff16565b905060018110156112c1575060015b818114156113165761130d6112fd6112f0866112e486600163ffffffff6119eb16565b9063ffffffff611aa116565b889063ffffffff6119eb16565b6112e4898b63ffffffff6119eb16565b92505050611531565b600061133a61132b878463ffffffff611aa116565b6003549063ffffffff611a2d16565b9050600061136261132b61135586600163ffffffff6119eb16565b899063ffffffff611aa116565b905089896113ad61138e6113818a6112e48a600163ffffffff6119eb16565b8c9063ffffffff6119eb16565b6112e485851161139e57856113a0565b845b849063ffffffff6119eb16565b965081841180156113be5750808411155b1561141d5761141a61140d6113fd600088116113db5760006113f0565b6113f08b6112e48a600163ffffffff6119eb16565b8d9063ffffffff6119eb16565b6112e4878663ffffffff6119eb16565b889063ffffffff611a2d16565b96505b508890508787848411156115295783600061144284610b02848a63ffffffff6119eb16565b905060018111156114f857600061147f6114726112f087610b02886112e46003548f6119eb90919063ffffffff16565b869063ffffffff611aa116565b905060006114c56114b86114ab876112e46001610b0e8c610b026003548d6119eb90919063ffffffff16565b899063ffffffff6119eb16565b879063ffffffff611aa116565b90506114ef6114e26002610b026114b8868663ffffffff611a2d16565b8d9063ffffffff611a2d16565b9b505050611526565b6115236115166114726112f0866112e48e600263ffffffff6119eb16565b8b9063ffffffff611a2d16565b99505b50505b505050505050505b95945050505050565b60085481565b60095481565b600061155061245c565b5073ffffffffffffffffffffffffffffffffffffffff83166000908152600f602090815260409182902082516080810184528154815260018201549281019290925260028101549282019290925260039091015460ff161515606082018190526115be576000915050610a65565b73ffffffffffffffffffffffffffffffffffffffff808516600081815260106020908152604080832094881683529381528382208585015185517f70a08231000000000000000000000000000000000000000000000000000000008152306004820152955191959094926370a0823192602480840193829003018186803b15801561164857600080fd5b505afa15801561165c573d6000803e3d6000fd5b505050506040513d602081101561167257600080fd5b505160208501519091504311801561168957508015155b801561169a57506008548460200151105b156117005760006116af8560200151436109f4565b905060006116d0600254610b02886000015185611aa190919063ffffffff16565b90506116fb6116ee84610b02600b5485611aa190919063ffffffff16565b859063ffffffff611a2d16565b935050505b6001830154600b5484546117239291610b0e91610b02908763ffffffff611aa116565b979650505050505050565b60065481565b600b5481565b600d5473ffffffffffffffffffffffffffffffffffffffff1681565b600c5473ffffffffffffffffffffffffffffffffffffffff1681565b61177a6119e7565b60005473ffffffffffffffffffffffffffffffffffffffff90811691161461180357604080517f08c379a000000000000000000000000000000000000000000000000000000000815260206004820181905260248201527f4f776e61626c653a2063616c6c6572206973206e6f7420746865206f776e6572604482015290519081900360640190fd5b6110ce81611ec3565b73ffffffffffffffffffffffffffffffffffffffff82166000908152600f602090815260408083206010835281842033855290925290912080548311156118b457604080517f08c379a000000000000000000000000000000000000000000000000000000000815260206004820152601260248201527f77697468647261773a206e6f7420676f6f640000000000000000000000000000604482015290519081900360640190fd5b6118bd84610e05565b60006118e88260010154610b0e600b54610b0287600201548760000154611aa190919063ffffffff16565b905080156118fa576118fa3382611b56565b831561193b578154611912908563ffffffff6119eb16565b825561193b73ffffffffffffffffffffffffffffffffffffffff8616338663ffffffff611df416565b600b546002840154835461195a9291610b02919063ffffffff611aa116565b600183015560408051858152905173ffffffffffffffffffffffffffffffffffffffff87169133917f9b1bfa7fa9ee420a16e124f794c35ac9f90472acc99140eb2f6447c714cad8eb9181900360200190a35050505050565b600e81815481106119c057fe5b60009182526020909120015473ffffffffffffffffffffffffffffffffffffffff16905081565b3390565b6000610a6283836040518060400160405280601e81526020017f536166654d6174683a207375627472616374696f6e206f766572666c6f770000815250611fbc565b600082820183811015610a6257604080517f08c379a000000000000000000000000000000000000000000000000000000000815260206004820152601b60248201527f536166654d6174683a206164646974696f6e206f766572666c6f770000000000604482015290519081900360640190fd5b600082611ab057506000610a65565b82820282848281611abd57fe5b0414610a62576040517f08c379a00000000000000000000000000000000000000000000000000000000081526004018080602001828103825260218152602001806124ad6021913960400191505060405180910390fd5b6000610a6283836040518060400160405280601a81526020017f536166654d6174683a206469766973696f6e206279207a65726f00000000000081525061206d565b600c54604080517f70a08231000000000000000000000000000000000000000000000000000000008152306004820152905160009273ffffffffffffffffffffffffffffffffffffffff16916370a08231916024808301926020929190829003018186803b158015611bc757600080fd5b505afa158015611bdb573d6000803e3d6000fd5b505050506040513d6020811015611bf157600080fd5b5051905080821115611cab57600c54604080517fa9059cbb00000000000000000000000000000000000000000000000000000000815273ffffffffffffffffffffffffffffffffffffffff8681166004830152602482018590529151919092169163a9059cbb9160448083019260209291908290030181600087803b158015611c7957600080fd5b505af1158015611c8d573d6000803e3d6000fd5b505050506040513d6020811015611ca357600080fd5b50611d549050565b600c54604080517fa9059cbb00000000000000000000000000000000000000000000000000000000815273ffffffffffffffffffffffffffffffffffffffff8681166004830152602482018690529151919092169163a9059cbb9160448083019260209291908290030181600087803b158015611d2757600080fd5b505af1158015611d3b573d6000803e3d6000fd5b505050506040513d6020811015611d5157600080fd5b50505b505050565b6040805173ffffffffffffffffffffffffffffffffffffffff80861660248301528416604482015260648082018490528251808303909101815260849091019091526020810180517bffffffffffffffffffffffffffffffffffffffffffffffffffffffff167f23b872dd00000000000000000000000000000000000000000000000000000000179052611dee9085906120ec565b50505050565b6040805173ffffffffffffffffffffffffffffffffffffffff8416602482015260448082018490528251808303909101815260649091019091526020810180517bffffffffffffffffffffffffffffffffffffffffffffffffffffffff167fa9059cbb00000000000000000000000000000000000000000000000000000000179052611d549084906120ec565b6000610a6283836040518060400160405280601881526020017f536166654d6174683a206d6f64756c6f206279207a65726f00000000000000008152506121c4565b73ffffffffffffffffffffffffffffffffffffffff8116611f2f576040517f08c379a00000000000000000000000000000000000000000000000000000000081526004018080602001828103825260268152602001806124876026913960400191505060405180910390fd5b6000805460405173ffffffffffffffffffffffffffffffffffffffff808516939216917f8be0079c531659141344cd1fd0a4f28419497f9722a3daafe3b4186f6b6457e091a3600080547fffffffffffffffffffffffff00000000000000000000000000000000000000001673ffffffffffffffffffffffffffffffffffffffff92909216919091179055565b60008184841115612065576040517f08c379a00000000000000000000000000000000000000000000000000000000081526004018080602001828103825283818151815260200191508051906020019080838360005b8381101561202a578181015183820152602001612012565b50505050905090810190601f1680156120575780820380516001836020036101000a031916815260200191505b509250505060405180910390fd5b505050900390565b600081836120d6576040517f08c379a000000000000000000000000000000000000000000000000000000000815260206004820181815283516024840152835190928392604490910191908501908083836000831561202a578181015183820152602001612012565b5060008385816120e257fe5b0495945050505050565b606061214e826040518060400160405280602081526020017f5361666545524332303a206c6f772d6c6576656c2063616c6c206661696c65648152508573ffffffffffffffffffffffffffffffffffffffff166122409092919063ffffffff16565b805190915015611d545780806020019051602081101561216d57600080fd5b5051611d54576040517f08c379a000000000000000000000000000000000000000000000000000000000815260040180806020018281038252602a8152602001806124ce602a913960400191505060405180910390fd5b6000818361222d576040517f08c379a000000000000000000000000000000000000000000000000000000000815260206004820181815283516024840152835190928392604490910191908501908083836000831561202a578181015183820152602001612012565b5082848161223757fe5b06949350505050565b606061224f8484600085612257565b949350505050565b606061226285612423565b6122cd57604080517f08c379a000000000000000000000000000000000000000000000000000000000815260206004820152601d60248201527f416464726573733a2063616c6c20746f206e6f6e2d636f6e7472616374000000604482015290519081900360640190fd5b600060608673ffffffffffffffffffffffffffffffffffffffff1685876040518082805190602001908083835b6020831061233757805182527fffffffffffffffffffffffffffffffffffffffffffffffffffffffffffffffe090920191602091820191016122fa565b6001836020036101000a03801982511681845116808217855250505050505090500191505060006040518083038185875af1925050503d8060008114612399576040519150601f19603f3d011682016040523d82523d6000602084013e61239e565b606091505b509150915081156123b257915061224f9050565b8051156123c25780518082602001fd5b6040517f08c379a000000000000000000000000000000000000000000000000000000000815260206004820181815286516024840152865187939192839260440191908501908083836000831561202a578181015183820152602001612012565b6000813f7fc5d2460186f7233c927e7db2dcc703c0e500b653ca82273b7bfad8045d85a47081811480159061224f575050151592915050565b6040518060800160405280600081526020016000815260200160008152602001600015158152509056fe4f776e61626c653a206e6577206f776e657220697320746865207a65726f2061646472657373536166654d6174683a206d756c7469706c69636174696f6e206f766572666c6f775361666545524332303a204552433230206f7065726174696f6e20646964206e6f742073756363656564a2646970667358221220a147d535f23ec8b1755976aa4062361f52f879be2280d7f4b63603153b16c9ac64736f6c63430006060033536166654d6174683a206d756c7469706c69636174696f6e206f766572666c6f77",
      "opcodes": "PUSH1 0x80 PUSH1 0x40 MSTORE PUSH1 0x0 PUSH1 0x2 SSTORE PUSH5 0xE8D4A51000 PUSH1 0xB SSTORE CALLVALUE DUP1 ISZERO PUSH3 0x1F JUMPI PUSH1 0x0 DUP1 REVERT JUMPDEST POP PUSH1 0x40 MLOAD PUSH3 0x2A41 CODESIZE SUB DUP1 PUSH3 0x2A41 DUP4 CODECOPY DUP2 DUP2 ADD PUSH1 0x40 MSTORE PUSH2 0x100 DUP2 LT ISZERO PUSH3 0x46 JUMPI PUSH1 0x0 DUP1 REVERT JUMPDEST POP DUP1 MLOAD PUSH1 0x20 DUP3 ADD MLOAD PUSH1 0x40 DUP4 ADD MLOAD PUSH1 0x60 DUP5 ADD MLOAD PUSH1 0x80 DUP6 ADD MLOAD PUSH1 0xA0 DUP7 ADD MLOAD PUSH1 0xC0 DUP8 ADD MLOAD PUSH1 0xE0 SWAP1 SWAP8 ADD MLOAD SWAP6 SWAP7 SWAP5 SWAP6 SWAP4 SWAP5 SWAP3 SWAP4 SWAP2 SWAP3 SWAP1 SWAP2 PUSH1 0x0 PUSH3 0x8E PUSH1 0x1 PUSH1 0x1 PUSH1 0xE0 SHL SUB PUSH3 0x285 AND JUMP JUMPDEST PUSH1 0x0 DUP1 SLOAD PUSH1 0x1 PUSH1 0x1 PUSH1 0xA0 SHL SUB NOT AND PUSH1 0x1 PUSH1 0x1 PUSH1 0xA0 SHL SUB DUP4 AND SWAP1 DUP2 OR DUP3 SSTORE PUSH1 0x40 MLOAD SWAP3 SWAP4 POP SWAP2 PUSH32 0x8BE0079C531659141344CD1FD0A4F28419497F9722A3DAAFE3B4186F6B6457E0 SWAP1 DUP3 SWAP1 LOG3 POP PUSH1 0xC DUP1 SLOAD PUSH1 0x1 PUSH1 0x1 PUSH1 0xA0 SHL SUB NOT SWAP1 DUP2 AND PUSH1 0x1 PUSH1 0x1 PUSH1 0xA0 SHL SUB DUP12 DUP2 AND SWAP2 SWAP1 SWAP2 OR SWAP1 SWAP3 SSTORE PUSH1 0xD DUP1 SLOAD SWAP1 SWAP2 AND SWAP2 DUP10 AND SWAP2 SWAP1 SWAP2 OR SWAP1 SSTORE PUSH1 0x1 DUP7 SWAP1 SSTORE PUSH1 0x3 DUP6 SWAP1 SSTORE PUSH1 0x4 DUP5 SWAP1 SSTORE PUSH1 0x5 DUP4 SWAP1 SSTORE PUSH1 0x9 DUP3 SWAP1 SSTORE PUSH1 0xA DUP2 SWAP1 SSTORE PUSH3 0x140 DUP5 DUP7 PUSH3 0x289 PUSH1 0x20 SWAP1 DUP2 SHL PUSH3 0x19EB OR SWAP1 SHR JUMP JUMPDEST PUSH1 0x6 DUP2 SWAP1 SSTORE POP PUSH3 0x1FF PUSH1 0x6 SLOAD PUSH3 0x1AC PUSH3 0x16F PUSH1 0x5 SLOAD PUSH1 0x6 SLOAD PUSH3 0x2DC PUSH1 0x20 SHL PUSH3 0x1B14 OR SWAP1 SWAP2 SWAP1 PUSH1 0x20 SHR JUMP JUMPDEST PUSH3 0x1D4 PUSH1 0x5 SLOAD PUSH3 0x1D4 PUSH3 0x1E8 PUSH1 0x9 SLOAD PUSH3 0x1D4 PUSH1 0x1 PUSH3 0x1C0 PUSH1 0x5 SLOAD PUSH3 0x1AC PUSH1 0x3 SLOAD PUSH1 0x4 SLOAD PUSH3 0x289 PUSH1 0x20 SHL PUSH3 0x19EB OR SWAP1 SWAP2 SWAP1 PUSH1 0x20 SHR JUMP JUMPDEST PUSH3 0x2DC PUSH1 0x20 SHL PUSH3 0x1B14 OR SWAP1 SWAP2 SWAP1 PUSH1 0x20 SHR JUMP JUMPDEST PUSH3 0x289 PUSH1 0x20 SHL PUSH3 0x19EB OR SWAP1 SWAP2 SWAP1 PUSH1 0x20 SHR JUMP JUMPDEST PUSH3 0x326 PUSH1 0x20 SHL PUSH3 0x1AA1 OR SWAP1 SWAP2 SWAP1 PUSH1 0x20 SHR JUMP JUMPDEST PUSH1 0x1 SLOAD PUSH3 0x289 PUSH1 0x20 SHL PUSH3 0x19EB OR SWAP1 SWAP2 SWAP1 PUSH1 0x20 SHR JUMP JUMPDEST PUSH1 0x7 DUP2 SWAP1 SSTORE POP PUSH3 0x273 PUSH3 0x25C PUSH3 0x245 PUSH1 0x1 PUSH3 0x231 PUSH1 0xA SLOAD PUSH1 0x7 SLOAD PUSH3 0x2DC PUSH1 0x20 SHL PUSH3 0x1B14 OR SWAP1 SWAP2 SWAP1 PUSH1 0x20 SHR JUMP JUMPDEST PUSH3 0x384 PUSH1 0x20 SHL PUSH3 0x1A2D OR SWAP1 SWAP2 SWAP1 PUSH1 0x20 SHR JUMP JUMPDEST PUSH1 0x6 SLOAD PUSH3 0x326 PUSH1 0x20 SHL PUSH3 0x1AA1 OR SWAP1 SWAP2 SWAP1 PUSH1 0x20 SHR JUMP JUMPDEST PUSH1 0x3 SLOAD PUSH3 0x384 PUSH1 0x20 SHL PUSH3 0x1A2D OR SWAP1 SWAP2 SWAP1 PUSH1 0x20 SHR JUMP JUMPDEST PUSH1 0x8 SSTORE POP PUSH3 0x4E3 SWAP7 POP POP POP POP POP POP POP JUMP JUMPDEST CALLER SWAP1 JUMP JUMPDEST PUSH1 0x0 PUSH3 0x2D3 DUP4 DUP4 PUSH1 0x40 MLOAD DUP1 PUSH1 0x40 ADD PUSH1 0x40 MSTORE DUP1 PUSH1 0x1E DUP2 MSTORE PUSH1 0x20 ADD PUSH32 0x536166654D6174683A207375627472616374696F6E206F766572666C6F770000 DUP2 MSTORE POP PUSH3 0x3DF PUSH1 0x20 SHL PUSH1 0x20 SHR JUMP JUMPDEST SWAP1 POP JUMPDEST SWAP3 SWAP2 POP POP JUMP JUMPDEST PUSH1 0x0 PUSH3 0x2D3 DUP4 DUP4 PUSH1 0x40 MLOAD DUP1 PUSH1 0x40 ADD PUSH1 0x40 MSTORE DUP1 PUSH1 0x1A DUP2 MSTORE PUSH1 0x20 ADD PUSH32 0x536166654D6174683A206469766973696F6E206279207A65726F000000000000 DUP2 MSTORE POP PUSH3 0x47A PUSH1 0x20 SHL PUSH1 0x20 SHR JUMP JUMPDEST PUSH1 0x0 DUP3 PUSH3 0x337 JUMPI POP PUSH1 0x0 PUSH3 0x2D6 JUMP JUMPDEST DUP3 DUP3 MUL DUP3 DUP5 DUP3 DUP2 PUSH3 0x345 JUMPI INVALID JUMPDEST DIV EQ PUSH3 0x2D3 JUMPI PUSH1 0x40 MLOAD PUSH3 0x461BCD PUSH1 0xE5 SHL DUP2 MSTORE PUSH1 0x4 ADD DUP1 DUP1 PUSH1 0x20 ADD DUP3 DUP2 SUB DUP3 MSTORE PUSH1 0x21 DUP2 MSTORE PUSH1 0x20 ADD DUP1 PUSH3 0x2A20 PUSH1 0x21 SWAP2 CODECOPY PUSH1 0x40 ADD SWAP2 POP POP PUSH1 0x40 MLOAD DUP1 SWAP2 SUB SWAP1 REVERT JUMPDEST PUSH1 0x0 DUP3 DUP3 ADD DUP4 DUP2 LT ISZERO PUSH3 0x2D3 JUMPI PUSH1 0x40 DUP1 MLOAD PUSH3 0x461BCD PUSH1 0xE5 SHL DUP2 MSTORE PUSH1 0x20 PUSH1 0x4 DUP3 ADD MSTORE PUSH1 0x1B PUSH1 0x24 DUP3 ADD MSTORE PUSH32 0x536166654D6174683A206164646974696F6E206F766572666C6F770000000000 PUSH1 0x44 DUP3 ADD MSTORE SWAP1 MLOAD SWAP1 DUP2 SWAP1 SUB PUSH1 0x64 ADD SWAP1 REVERT JUMPDEST PUSH1 0x0 DUP2 DUP5 DUP5 GT ISZERO PUSH3 0x472 JUMPI PUSH1 0x40 MLOAD PUSH3 0x461BCD PUSH1 0xE5 SHL DUP2 MSTORE PUSH1 0x4 ADD DUP1 DUP1 PUSH1 0x20 ADD DUP3 DUP2 SUB DUP3 MSTORE DUP4 DUP2 DUP2 MLOAD DUP2 MSTORE PUSH1 0x20 ADD SWAP2 POP DUP1 MLOAD SWAP1 PUSH1 0x20 ADD SWAP1 DUP1 DUP4 DUP4 PUSH1 0x0 JUMPDEST DUP4 DUP2 LT ISZERO PUSH3 0x436 JUMPI DUP2 DUP2 ADD MLOAD DUP4 DUP3 ADD MSTORE PUSH1 0x20 ADD PUSH3 0x41C JUMP JUMPDEST POP POP POP POP SWAP1 POP SWAP1 DUP2 ADD SWAP1 PUSH1 0x1F AND DUP1 ISZERO PUSH3 0x464 JUMPI DUP1 DUP3 SUB DUP1 MLOAD PUSH1 0x1 DUP4 PUSH1 0x20 SUB PUSH2 0x100 EXP SUB NOT AND DUP2 MSTORE PUSH1 0x20 ADD SWAP2 POP JUMPDEST POP SWAP3 POP POP POP PUSH1 0x40 MLOAD DUP1 SWAP2 SUB SWAP1 REVERT JUMPDEST POP POP POP SWAP1 SUB SWAP1 JUMP JUMPDEST PUSH1 0x0 DUP2 DUP4 PUSH3 0x4CC JUMPI PUSH1 0x40 MLOAD PUSH3 0x461BCD PUSH1 0xE5 SHL DUP2 MSTORE PUSH1 0x20 PUSH1 0x4 DUP3 ADD DUP2 DUP2 MSTORE DUP4 MLOAD PUSH1 0x24 DUP5 ADD MSTORE DUP4 MLOAD SWAP1 SWAP3 DUP4 SWAP3 PUSH1 0x44 SWAP1 SWAP2 ADD SWAP2 SWAP1 DUP6 ADD SWAP1 DUP1 DUP4 DUP4 PUSH1 0x0 DUP4 ISZERO PUSH3 0x436 JUMPI DUP2 DUP2 ADD MLOAD DUP4 DUP3 ADD MSTORE PUSH1 0x20 ADD PUSH3 0x41C JUMP JUMPDEST POP PUSH1 0x0 DUP4 DUP6 DUP2 PUSH3 0x4D9 JUMPI INVALID JUMPDEST DIV SWAP6 SWAP5 POP POP POP POP POP JUMP JUMPDEST PUSH2 0x252D DUP1 PUSH3 0x4F3 PUSH1 0x0 CODECOPY PUSH1 0x0 RETURN INVALID PUSH1 0x80 PUSH1 0x40 MSTORE CALLVALUE DUP1 ISZERO PUSH2 0x10 JUMPI PUSH1 0x0 DUP1 REVERT JUMPDEST POP PUSH1 0x4 CALLDATASIZE LT PUSH2 0x1F0 JUMPI PUSH1 0x0 CALLDATALOAD PUSH1 0xE0 SHR DUP1 PUSH4 0x715018A6 GT PUSH2 0x10F JUMPI DUP1 PUSH4 0xCA53D31A GT PUSH2 0xA2 JUMPI DUP1 PUSH4 0xE483C803 GT PUSH2 0x71 JUMPI DUP1 PUSH4 0xE483C803 EQ PUSH2 0x58F JUMPI DUP1 PUSH4 0xF2FDE38B EQ PUSH2 0x597 JUMPI DUP1 PUSH4 0xF3FEF3A3 EQ PUSH2 0x5CA JUMPI DUP1 PUSH4 0xFEB21B9C EQ PUSH2 0x603 JUMPI PUSH2 0x1F0 JUMP JUMPDEST DUP1 PUSH4 0xCA53D31A EQ PUSH2 0x53C JUMPI DUP1 PUSH4 0xCEDBCF27 EQ PUSH2 0x577 JUMPI DUP1 PUSH4 0xD1B2A977 EQ PUSH2 0x57F JUMPI DUP1 PUSH4 0xDA09C72C EQ PUSH2 0x587 JUMPI PUSH2 0x1F0 JUMP JUMPDEST DUP1 PUSH4 0x9E529DFF GT PUSH2 0xDE JUMPI DUP1 PUSH4 0x9E529DFF EQ PUSH2 0x4EF JUMPI DUP1 PUSH4 0xA55B9207 EQ PUSH2 0x4F7 JUMPI DUP1 PUSH4 0xA5F8D4E6 EQ PUSH2 0x52C JUMPI DUP1 PUSH4 0xC97AB21A EQ PUSH2 0x534 JUMPI PUSH2 0x1F0 JUMP JUMPDEST DUP1 PUSH4 0x715018A6 EQ PUSH2 0x450 JUMPI DUP1 PUSH4 0x7B46C54F EQ PUSH2 0x458 JUMPI DUP1 PUSH4 0x8D88A90E EQ PUSH2 0x48B JUMPI DUP1 PUSH4 0x8DA5CB5B EQ PUSH2 0x4BE JUMPI PUSH2 0x1F0 JUMP JUMPDEST DUP1 PUSH4 0x2D3F7FCB GT PUSH2 0x187 JUMPI DUP1 PUSH4 0x48CD4CB1 GT PUSH2 0x156 JUMPI DUP1 PUSH4 0x48CD4CB1 EQ PUSH2 0x3C6 JUMPI DUP1 PUSH4 0x61235C7B EQ PUSH2 0x3CE JUMPI DUP1 PUSH4 0x630B5BA1 EQ PUSH2 0x415 JUMPI DUP1 PUSH4 0x6FF1C9BC EQ PUSH2 0x41D JUMPI PUSH2 0x1F0 JUMP JUMPDEST DUP1 PUSH4 0x2D3F7FCB EQ PUSH2 0x30E JUMPI DUP1 PUSH4 0x349E2CC6 EQ PUSH2 0x316 JUMPI DUP1 PUSH4 0x34ACE417 EQ PUSH2 0x339 JUMPI DUP1 PUSH4 0x47E7EF24 EQ PUSH2 0x38D JUMPI PUSH2 0x1F0 JUMP JUMPDEST DUP1 PUSH4 0x17CAF6F1 GT PUSH2 0x1C3 JUMPI DUP1 PUSH4 0x17CAF6F1 EQ PUSH2 0x2B5 JUMPI DUP1 PUSH4 0x1AED6553 EQ PUSH2 0x2BD JUMPI DUP1 PUSH4 0x1EAAA045 EQ PUSH2 0x2C5 JUMPI DUP1 PUSH4 0x218C3E8D EQ PUSH2 0x306 JUMPI PUSH2 0x1F0 JUMP JUMPDEST DUP1 PUSH4 0x81E3EDA EQ PUSH2 0x1F5 JUMPI DUP1 PUSH4 0xB139194 EQ PUSH2 0x20F JUMPI DUP1 PUSH4 0x114B338B EQ PUSH2 0x252 JUMPI DUP1 PUSH4 0x1218C598 EQ PUSH2 0x25A JUMPI JUMPDEST PUSH1 0x0 DUP1 REVERT JUMPDEST PUSH2 0x1FD PUSH2 0x620 JUMP JUMPDEST PUSH1 0x40 DUP1 MLOAD SWAP2 DUP3 MSTORE MLOAD SWAP1 DUP2 SWAP1 SUB PUSH1 0x20 ADD SWAP1 RETURN JUMPDEST PUSH2 0x250 PUSH1 0x4 DUP1 CALLDATASIZE SUB PUSH1 0x60 DUP2 LT ISZERO PUSH2 0x225 JUMPI PUSH1 0x0 DUP1 REVERT JUMPDEST POP PUSH20 0xFFFFFFFFFFFFFFFFFFFFFFFFFFFFFFFFFFFFFFFF DUP2 CALLDATALOAD AND SWAP1 PUSH1 0x20 DUP2 ADD CALLDATALOAD SWAP1 PUSH1 0x40 ADD CALLDATALOAD ISZERO ISZERO PUSH2 0x626 JUMP JUMPDEST STOP JUMPDEST PUSH2 0x1FD PUSH2 0x78E JUMP JUMPDEST PUSH2 0x28D PUSH1 0x4 DUP1 CALLDATASIZE SUB PUSH1 0x20 DUP2 LT ISZERO PUSH2 0x270 JUMPI PUSH1 0x0 DUP1 REVERT JUMPDEST POP CALLDATALOAD PUSH20 0xFFFFFFFFFFFFFFFFFFFFFFFFFFFFFFFFFFFFFFFF AND PUSH2 0x794 JUMP JUMPDEST PUSH1 0x40 DUP1 MLOAD SWAP5 DUP6 MSTORE PUSH1 0x20 DUP6 ADD SWAP4 SWAP1 SWAP4 MSTORE DUP4 DUP4 ADD SWAP2 SWAP1 SWAP2 MSTORE ISZERO ISZERO PUSH1 0x60 DUP4 ADD MSTORE MLOAD SWAP1 DUP2 SWAP1 SUB PUSH1 0x80 ADD SWAP1 RETURN JUMPDEST PUSH2 0x1FD PUSH2 0x7BE JUMP JUMPDEST PUSH2 0x1FD PUSH2 0x7C4 JUMP JUMPDEST PUSH2 0x250 PUSH1 0x4 DUP1 CALLDATASIZE SUB PUSH1 0x60 DUP2 LT ISZERO PUSH2 0x2DB JUMPI PUSH1 0x0 DUP1 REVERT JUMPDEST POP DUP1 CALLDATALOAD SWAP1 PUSH20 0xFFFFFFFFFFFFFFFFFFFFFFFFFFFFFFFFFFFFFFFF PUSH1 0x20 DUP3 ADD CALLDATALOAD AND SWAP1 PUSH1 0x40 ADD CALLDATALOAD ISZERO ISZERO PUSH2 0x7CA JUMP JUMPDEST PUSH2 0x1FD PUSH2 0x9E8 JUMP JUMPDEST PUSH2 0x1FD PUSH2 0x9EE JUMP JUMPDEST PUSH2 0x1FD PUSH1 0x4 DUP1 CALLDATASIZE SUB PUSH1 0x40 DUP2 LT ISZERO PUSH2 0x32C JUMPI PUSH1 0x0 DUP1 REVERT JUMPDEST POP DUP1 CALLDATALOAD SWAP1 PUSH1 0x20 ADD CALLDATALOAD PUSH2 0x9F4 JUMP JUMPDEST PUSH2 0x374 PUSH1 0x4 DUP1 CALLDATASIZE SUB PUSH1 0x40 DUP2 LT ISZERO PUSH2 0x34F JUMPI PUSH1 0x0 DUP1 REVERT JUMPDEST POP PUSH20 0xFFFFFFFFFFFFFFFFFFFFFFFFFFFFFFFFFFFFFFFF DUP2 CALLDATALOAD DUP2 AND SWAP2 PUSH1 0x20 ADD CALLDATALOAD AND PUSH2 0xA6B JUMP JUMPDEST PUSH1 0x40 DUP1 MLOAD SWAP3 DUP4 MSTORE PUSH1 0x20 DUP4 ADD SWAP2 SWAP1 SWAP2 MSTORE DUP1 MLOAD SWAP2 DUP3 SWAP1 SUB ADD SWAP1 RETURN JUMPDEST PUSH2 0x250 PUSH1 0x4 DUP1 CALLDATASIZE SUB PUSH1 0x40 DUP2 LT ISZERO PUSH2 0x3A3 JUMPI PUSH1 0x0 DUP1 REVERT JUMPDEST POP PUSH20 0xFFFFFFFFFFFFFFFFFFFFFFFFFFFFFFFFFFFFFFFF DUP2 CALLDATALOAD AND SWAP1 PUSH1 0x20 ADD CALLDATALOAD PUSH2 0xA8F JUMP JUMPDEST PUSH2 0x1FD PUSH2 0xBDE JUMP JUMPDEST PUSH2 0x401 PUSH1 0x4 DUP1 CALLDATASIZE SUB PUSH1 0x20 DUP2 LT ISZERO PUSH2 0x3E4 JUMPI PUSH1 0x0 DUP1 REVERT JUMPDEST POP CALLDATALOAD PUSH20 0xFFFFFFFFFFFFFFFFFFFFFFFFFFFFFFFFFFFFFFFF AND PUSH2 0xBE4 JUMP JUMPDEST PUSH1 0x40 DUP1 MLOAD SWAP2 ISZERO ISZERO DUP3 MSTORE MLOAD SWAP1 DUP2 SWAP1 SUB PUSH1 0x20 ADD SWAP1 RETURN JUMPDEST PUSH2 0x250 PUSH2 0xC12 JUMP JUMPDEST PUSH2 0x250 PUSH1 0x4 DUP1 CALLDATASIZE SUB PUSH1 0x20 DUP2 LT ISZERO PUSH2 0x433 JUMPI PUSH1 0x0 DUP1 REVERT JUMPDEST POP CALLDATALOAD PUSH20 0xFFFFFFFFFFFFFFFFFFFFFFFFFFFFFFFFFFFFFFFF AND PUSH2 0xC63 JUMP JUMPDEST PUSH2 0x250 PUSH2 0xD05 JUMP JUMPDEST PUSH2 0x250 PUSH1 0x4 DUP1 CALLDATASIZE SUB PUSH1 0x20 DUP2 LT ISZERO PUSH2 0x46E JUMPI PUSH1 0x0 DUP1 REVERT JUMPDEST POP CALLDATALOAD PUSH20 0xFFFFFFFFFFFFFFFFFFFFFFFFFFFFFFFFFFFFFFFF AND PUSH2 0xE05 JUMP JUMPDEST PUSH2 0x250 PUSH1 0x4 DUP1 CALLDATASIZE SUB PUSH1 0x20 DUP2 LT ISZERO PUSH2 0x4A1 JUMPI PUSH1 0x0 DUP1 REVERT JUMPDEST POP CALLDATALOAD PUSH20 0xFFFFFFFFFFFFFFFFFFFFFFFFFFFFFFFFFFFFFFFF AND PUSH2 0x10D1 JUMP JUMPDEST PUSH2 0x4C6 PUSH2 0x119E JUMP JUMPDEST PUSH1 0x40 DUP1 MLOAD PUSH20 0xFFFFFFFFFFFFFFFFFFFFFFFFFFFFFFFFFFFFFFFF SWAP1 SWAP3 AND DUP3 MSTORE MLOAD SWAP1 DUP2 SWAP1 SUB PUSH1 0x20 ADD SWAP1 RETURN JUMPDEST PUSH2 0x1FD PUSH2 0x11BA JUMP JUMPDEST PUSH2 0x1FD PUSH1 0x4 DUP1 CALLDATASIZE SUB PUSH1 0xA0 DUP2 LT ISZERO PUSH2 0x50D JUMPI PUSH1 0x0 DUP1 REVERT JUMPDEST POP DUP1 CALLDATALOAD SWAP1 PUSH1 0x20 DUP2 ADD CALLDATALOAD SWAP1 PUSH1 0x40 DUP2 ADD CALLDATALOAD SWAP1 PUSH1 0x60 DUP2 ADD CALLDATALOAD SWAP1 PUSH1 0x80 ADD CALLDATALOAD PUSH2 0x11C0 JUMP JUMPDEST PUSH2 0x1FD PUSH2 0x153A JUMP JUMPDEST PUSH2 0x1FD PUSH2 0x1540 JUMP JUMPDEST PUSH2 0x1FD PUSH1 0x4 DUP1 CALLDATASIZE SUB PUSH1 0x40 DUP2 LT ISZERO PUSH2 0x552 JUMPI PUSH1 0x0 DUP1 REVERT JUMPDEST POP PUSH20 0xFFFFFFFFFFFFFFFFFFFFFFFFFFFFFFFFFFFFFFFF DUP2 CALLDATALOAD DUP2 AND SWAP2 PUSH1 0x20 ADD CALLDATALOAD AND PUSH2 0x1546 JUMP JUMPDEST PUSH2 0x1FD PUSH2 0x172E JUMP JUMPDEST PUSH2 0x1FD PUSH2 0x1734 JUMP JUMPDEST PUSH2 0x4C6 PUSH2 0x173A JUMP JUMPDEST PUSH2 0x4C6 PUSH2 0x1756 JUMP JUMPDEST PUSH2 0x250 PUSH1 0x4 DUP1 CALLDATASIZE SUB PUSH1 0x20 DUP2 LT ISZERO PUSH2 0x5AD JUMPI PUSH1 0x0 DUP1 REVERT JUMPDEST POP CALLDATALOAD PUSH20 0xFFFFFFFFFFFFFFFFFFFFFFFFFFFFFFFFFFFFFFFF AND PUSH2 0x1772 JUMP JUMPDEST PUSH2 0x250 PUSH1 0x4 DUP1 CALLDATASIZE SUB PUSH1 0x40 DUP2 LT ISZERO PUSH2 0x5E0 JUMPI PUSH1 0x0 DUP1 REVERT JUMPDEST POP PUSH20 0xFFFFFFFFFFFFFFFFFFFFFFFFFFFFFFFFFFFFFFFF DUP2 CALLDATALOAD AND SWAP1 PUSH1 0x20 ADD CALLDATALOAD PUSH2 0x180C JUMP JUMPDEST PUSH2 0x4C6 PUSH1 0x4 DUP1 CALLDATASIZE SUB PUSH1 0x20 DUP2 LT ISZERO PUSH2 0x619 JUMPI PUSH1 0x0 DUP1 REVERT JUMPDEST POP CALLDATALOAD PUSH2 0x19B3 JUMP JUMPDEST PUSH1 0xE SLOAD SWAP1 JUMP JUMPDEST PUSH2 0x62E PUSH2 0x19E7 JUMP JUMPDEST PUSH1 0x0 SLOAD PUSH20 0xFFFFFFFFFFFFFFFFFFFFFFFFFFFFFFFFFFFFFFFF SWAP1 DUP2 AND SWAP2 AND EQ PUSH2 0x6B7 JUMPI PUSH1 0x40 DUP1 MLOAD PUSH32 0x8C379A000000000000000000000000000000000000000000000000000000000 DUP2 MSTORE PUSH1 0x20 PUSH1 0x4 DUP3 ADD DUP2 SWAP1 MSTORE PUSH1 0x24 DUP3 ADD MSTORE PUSH32 0x4F776E61626C653A2063616C6C6572206973206E6F7420746865206F776E6572 PUSH1 0x44 DUP3 ADD MSTORE SWAP1 MLOAD SWAP1 DUP2 SWAP1 SUB PUSH1 0x64 ADD SWAP1 REVERT JUMPDEST DUP1 ISZERO PUSH2 0x6C5 JUMPI PUSH2 0x6C5 PUSH2 0xC12 JUMP JUMPDEST PUSH20 0xFFFFFFFFFFFFFFFFFFFFFFFFFFFFFFFFFFFFFFFF DUP4 AND PUSH1 0x0 SWAP1 DUP2 MSTORE PUSH1 0xF PUSH1 0x20 MSTORE PUSH1 0x40 SWAP1 KECCAK256 PUSH1 0x3 DUP2 ADD SLOAD PUSH1 0xFF AND PUSH2 0x75D JUMPI PUSH1 0x40 DUP1 MLOAD PUSH32 0x8C379A000000000000000000000000000000000000000000000000000000000 DUP2 MSTORE PUSH1 0x20 PUSH1 0x4 DUP3 ADD MSTORE PUSH1 0xF PUSH1 0x24 DUP3 ADD MSTORE PUSH32 0x706F6F6C206E6F74206578697374730000000000000000000000000000000000 PUSH1 0x44 DUP3 ADD MSTORE SWAP1 MLOAD SWAP1 DUP2 SWAP1 SUB PUSH1 0x64 ADD SWAP1 REVERT JUMPDEST DUP1 SLOAD PUSH1 0x2 SLOAD PUSH2 0x783 SWAP2 DUP6 SWAP2 PUSH2 0x777 SWAP2 PUSH4 0xFFFFFFFF PUSH2 0x19EB AND JUMP JUMPDEST SWAP1 PUSH4 0xFFFFFFFF PUSH2 0x1A2D AND JUMP JUMPDEST PUSH1 0x2 SSTORE SWAP2 SWAP1 SWAP2 SSTORE POP POP JUMP JUMPDEST PUSH1 0xA SLOAD DUP2 JUMP JUMPDEST PUSH1 0xF PUSH1 0x20 MSTORE PUSH1 0x0 SWAP1 DUP2 MSTORE PUSH1 0x40 SWAP1 KECCAK256 DUP1 SLOAD PUSH1 0x1 DUP3 ADD SLOAD PUSH1 0x2 DUP4 ADD SLOAD PUSH1 0x3 SWAP1 SWAP4 ADD SLOAD SWAP2 SWAP3 SWAP1 SWAP2 PUSH1 0xFF AND DUP5 JUMP JUMPDEST PUSH1 0x2 SLOAD DUP2 JUMP JUMPDEST PUSH1 0x4 SLOAD DUP2 JUMP JUMPDEST PUSH2 0x7D2 PUSH2 0x19E7 JUMP JUMPDEST PUSH1 0x0 SLOAD PUSH20 0xFFFFFFFFFFFFFFFFFFFFFFFFFFFFFFFFFFFFFFFF SWAP1 DUP2 AND SWAP2 AND EQ PUSH2 0x85B JUMPI PUSH1 0x40 DUP1 MLOAD PUSH32 0x8C379A000000000000000000000000000000000000000000000000000000000 DUP2 MSTORE PUSH1 0x20 PUSH1 0x4 DUP3 ADD DUP2 SWAP1 MSTORE PUSH1 0x24 DUP3 ADD MSTORE PUSH32 0x4F776E61626C653A2063616C6C6572206973206E6F7420746865206F776E6572 PUSH1 0x44 DUP3 ADD MSTORE SWAP1 MLOAD SWAP1 DUP2 SWAP1 SUB PUSH1 0x64 ADD SWAP1 REVERT JUMPDEST DUP1 ISZERO PUSH2 0x869 JUMPI PUSH2 0x869 PUSH2 0xC12 JUMP JUMPDEST PUSH20 0xFFFFFFFFFFFFFFFFFFFFFFFFFFFFFFFFFFFFFFFF DUP3 AND PUSH1 0x0 SWAP1 DUP2 MSTORE PUSH1 0xF PUSH1 0x20 MSTORE PUSH1 0x40 SWAP1 KECCAK256 PUSH1 0x3 DUP2 ADD SLOAD PUSH1 0xFF AND ISZERO PUSH2 0x902 JUMPI PUSH1 0x40 DUP1 MLOAD PUSH32 0x8C379A000000000000000000000000000000000000000000000000000000000 DUP2 MSTORE PUSH1 0x20 PUSH1 0x4 DUP3 ADD MSTORE PUSH1 0x13 PUSH1 0x24 DUP3 ADD MSTORE PUSH32 0x706F6F6C20616C72656164792065786973747300000000000000000000000000 PUSH1 0x44 DUP3 ADD MSTORE SWAP1 MLOAD SWAP1 DUP2 SWAP1 SUB PUSH1 0x64 ADD SWAP1 REVERT JUMPDEST PUSH1 0x0 PUSH1 0x3 SLOAD NUMBER GT PUSH2 0x915 JUMPI PUSH1 0x3 SLOAD PUSH2 0x917 JUMP JUMPDEST NUMBER JUMPDEST PUSH1 0x2 SLOAD SWAP1 SWAP2 POP PUSH2 0x92D SWAP1 DUP7 PUSH4 0xFFFFFFFF PUSH2 0x1A2D AND JUMP JUMPDEST PUSH1 0x2 SWAP1 DUP2 SSTORE SWAP5 DUP3 SSTORE PUSH1 0x1 DUP1 DUP4 ADD SWAP2 SWAP1 SWAP2 SSTORE PUSH1 0x0 SWAP5 DUP3 ADD DUP6 SWAP1 SSTORE PUSH1 0x3 SWAP1 SWAP2 ADD DUP1 SLOAD PUSH32 0xFFFFFFFFFFFFFFFFFFFFFFFFFFFFFFFFFFFFFFFFFFFFFFFFFFFFFFFFFFFFFF00 AND DUP3 OR SWAP1 SSTORE PUSH1 0xE DUP1 SLOAD SWAP2 DUP3 ADD DUP2 SSTORE SWAP1 SWAP4 MSTORE POP PUSH32 0xBB7B4A454DC3493923482F07822329ED19E8244EFF582CC204F8554C3620C3FD SWAP1 SWAP2 ADD DUP1 SLOAD PUSH32 0xFFFFFFFFFFFFFFFFFFFFFFFF0000000000000000000000000000000000000000 AND PUSH20 0xFFFFFFFFFFFFFFFFFFFFFFFFFFFFFFFFFFFFFFFF SWAP1 SWAP3 AND SWAP2 SWAP1 SWAP2 OR SWAP1 SSTORE JUMP JUMPDEST PUSH1 0x7 SLOAD DUP2 JUMP JUMPDEST PUSH1 0x5 SLOAD DUP2 JUMP JUMPDEST PUSH1 0x0 PUSH1 0x4 SLOAD DUP3 GT PUSH2 0xA19 JUMPI PUSH2 0xA12 DUP4 DUP4 PUSH1 0x1 SLOAD PUSH1 0x5 SLOAD PUSH1 0x9 SLOAD PUSH2 0x11C0 JUMP JUMPDEST SWAP1 POP PUSH2 0xA65 JUMP JUMPDEST PUSH1 0x4 SLOAD DUP4 LT PUSH2 0xA35 JUMPI PUSH2 0xA12 DUP4 DUP4 PUSH1 0x7 SLOAD PUSH1 0x6 SLOAD PUSH1 0xA SLOAD PUSH2 0x11C0 JUMP JUMPDEST PUSH2 0xA62 PUSH2 0xA4D PUSH1 0x4 SLOAD DUP5 PUSH1 0x7 SLOAD PUSH1 0x6 SLOAD PUSH1 0xA SLOAD PUSH2 0x11C0 JUMP JUMPDEST PUSH2 0x777 DUP6 PUSH1 0x4 SLOAD PUSH1 0x1 SLOAD PUSH1 0x5 SLOAD PUSH1 0x9 SLOAD PUSH2 0x11C0 JUMP JUMPDEST SWAP1 POP JUMPDEST SWAP3 SWAP2 POP POP JUMP JUMPDEST PUSH1 0x10 PUSH1 0x20 SWAP1 DUP2 MSTORE PUSH1 0x0 SWAP3 DUP4 MSTORE PUSH1 0x40 DUP1 DUP5 KECCAK256 SWAP1 SWAP2 MSTORE SWAP1 DUP3 MSTORE SWAP1 KECCAK256 DUP1 SLOAD PUSH1 0x1 SWAP1 SWAP2 ADD SLOAD DUP3 JUMP JUMPDEST PUSH20 0xFFFFFFFFFFFFFFFFFFFFFFFFFFFFFFFFFFFFFFFF DUP3 AND PUSH1 0x0 SWAP1 DUP2 MSTORE PUSH1 0xF PUSH1 0x20 SWAP1 DUP2 MSTORE PUSH1 0x40 DUP1 DUP4 KECCAK256 PUSH1 0x10 DUP4 MSTORE DUP2 DUP5 KECCAK256 CALLER DUP6 MSTORE SWAP1 SWAP3 MSTORE SWAP1 SWAP2 KECCAK256 PUSH2 0xAD0 DUP5 PUSH2 0xE05 JUMP JUMPDEST DUP1 SLOAD ISZERO PUSH2 0xB2E JUMPI PUSH1 0x0 PUSH2 0xB1A DUP3 PUSH1 0x1 ADD SLOAD PUSH2 0xB0E PUSH1 0xB SLOAD PUSH2 0xB02 DUP8 PUSH1 0x2 ADD SLOAD DUP8 PUSH1 0x0 ADD SLOAD PUSH2 0x1AA1 SWAP1 SWAP2 SWAP1 PUSH4 0xFFFFFFFF AND JUMP JUMPDEST SWAP1 PUSH4 0xFFFFFFFF PUSH2 0x1B14 AND JUMP JUMPDEST SWAP1 PUSH4 0xFFFFFFFF PUSH2 0x19EB AND JUMP JUMPDEST SWAP1 POP DUP1 ISZERO PUSH2 0xB2C JUMPI PUSH2 0xB2C CALLER DUP3 PUSH2 0x1B56 JUMP JUMPDEST POP JUMPDEST PUSH2 0xB56 PUSH20 0xFFFFFFFFFFFFFFFFFFFFFFFFFFFFFFFFFFFFFFFF DUP6 AND CALLER ADDRESS DUP7 PUSH4 0xFFFFFFFF PUSH2 0x1D59 AND JUMP JUMPDEST DUP1 SLOAD PUSH2 0xB68 SWAP1 DUP5 PUSH4 0xFFFFFFFF PUSH2 0x1A2D AND JUMP JUMPDEST DUP1 DUP3 SSTORE PUSH1 0xB SLOAD PUSH1 0x2 DUP5 ADD SLOAD PUSH2 0xB86 SWAP3 PUSH2 0xB02 SWAP2 PUSH4 0xFFFFFFFF PUSH2 0x1AA1 AND JUMP JUMPDEST PUSH1 0x1 DUP3 ADD SSTORE PUSH1 0x40 DUP1 MLOAD DUP5 DUP2 MSTORE SWAP1 MLOAD PUSH20 0xFFFFFFFFFFFFFFFFFFFFFFFFFFFFFFFFFFFFFFFF DUP7 AND SWAP2 CALLER SWAP2 PUSH32 0x5548C837AB068CF56A2C2479DF0882A4922FD203EDB7517321831D95078C5F62 SWAP2 DUP2 SWAP1 SUB PUSH1 0x20 ADD SWAP1 LOG3 POP POP POP POP JUMP JUMPDEST PUSH1 0x3 SLOAD DUP2 JUMP JUMPDEST PUSH20 0xFFFFFFFFFFFFFFFFFFFFFFFFFFFFFFFFFFFFFFFF AND PUSH1 0x0 SWAP1 DUP2 MSTORE PUSH1 0xF PUSH1 0x20 MSTORE PUSH1 0x40 SWAP1 KECCAK256 PUSH1 0x3 ADD SLOAD PUSH1 0xFF AND SWAP1 JUMP JUMPDEST PUSH1 0xE SLOAD PUSH1 0x0 JUMPDEST DUP2 DUP2 LT ISZERO PUSH2 0xC5F JUMPI PUSH2 0xC57 PUSH1 0xE DUP3 DUP2 SLOAD DUP2 LT PUSH2 0xC30 JUMPI INVALID JUMPDEST PUSH1 0x0 SWAP2 DUP3 MSTORE PUSH1 0x20 SWAP1 SWAP2 KECCAK256 ADD SLOAD PUSH20 0xFFFFFFFFFFFFFFFFFFFFFFFFFFFFFFFFFFFFFFFF AND PUSH2 0xE05 JUMP JUMPDEST PUSH1 0x1 ADD PUSH2 0xC18 JUMP JUMPDEST POP POP JUMP JUMPDEST PUSH20 0xFFFFFFFFFFFFFFFFFFFFFFFFFFFFFFFFFFFFFFFF DUP2 AND PUSH1 0x0 DUP2 DUP2 MSTORE PUSH1 0x10 PUSH1 0x20 SWAP1 DUP2 MSTORE PUSH1 0x40 DUP1 DUP4 KECCAK256 CALLER DUP1 DUP6 MSTORE SWAP3 MSTORE SWAP1 SWAP2 KECCAK256 DUP1 SLOAD SWAP1 SWAP3 PUSH2 0xCA9 SWAP3 SWAP1 SWAP2 PUSH4 0xFFFFFFFF PUSH2 0x1DF4 AND JUMP JUMPDEST DUP1 SLOAD PUSH1 0x40 DUP1 MLOAD SWAP2 DUP3 MSTORE MLOAD PUSH20 0xFFFFFFFFFFFFFFFFFFFFFFFFFFFFFFFFFFFFFFFF DUP5 AND SWAP2 CALLER SWAP2 PUSH32 0xF24EF89F38EADC1BDE50701AD6E4D6D11A2DC24F7CF834A486991F3883328504 SWAP2 DUP2 SWAP1 SUB PUSH1 0x20 ADD SWAP1 LOG3 PUSH1 0x0 DUP1 DUP3 SSTORE PUSH1 0x1 SWAP1 SWAP2 ADD SSTORE POP JUMP JUMPDEST PUSH2 0xD0D PUSH2 0x19E7 JUMP JUMPDEST PUSH1 0x0 SLOAD PUSH20 0xFFFFFFFFFFFFFFFFFFFFFFFFFFFFFFFFFFFFFFFF SWAP1 DUP2 AND SWAP2 AND EQ PUSH2 0xD96 JUMPI PUSH1 0x40 DUP1 MLOAD PUSH32 0x8C379A000000000000000000000000000000000000000000000000000000000 DUP2 MSTORE PUSH1 0x20 PUSH1 0x4 DUP3 ADD DUP2 SWAP1 MSTORE PUSH1 0x24 DUP3 ADD MSTORE PUSH32 0x4F776E61626C653A2063616C6C6572206973206E6F7420746865206F776E6572 PUSH1 0x44 DUP3 ADD MSTORE SWAP1 MLOAD SWAP1 DUP2 SWAP1 SUB PUSH1 0x64 ADD SWAP1 REVERT JUMPDEST PUSH1 0x0 DUP1 SLOAD PUSH1 0x40 MLOAD PUSH20 0xFFFFFFFFFFFFFFFFFFFFFFFFFFFFFFFFFFFFFFFF SWAP1 SWAP2 AND SWAP1 PUSH32 0x8BE0079C531659141344CD1FD0A4F28419497F9722A3DAAFE3B4186F6B6457E0 SWAP1 DUP4 SWAP1 LOG3 PUSH1 0x0 DUP1 SLOAD PUSH32 0xFFFFFFFFFFFFFFFFFFFFFFFF0000000000000000000000000000000000000000 AND SWAP1 SSTORE JUMP JUMPDEST PUSH20 0xFFFFFFFFFFFFFFFFFFFFFFFFFFFFFFFFFFFFFFFF DUP2 AND PUSH1 0x0 SWAP1 DUP2 MSTORE PUSH1 0xF PUSH1 0x20 MSTORE PUSH1 0x40 SWAP1 KECCAK256 PUSH1 0x3 DUP2 ADD SLOAD PUSH1 0xFF AND ISZERO DUP1 PUSH2 0xE42 JUMPI POP DUP1 PUSH1 0x1 ADD SLOAD NUMBER GT ISZERO JUMPDEST ISZERO PUSH2 0xE4D JUMPI POP PUSH2 0x10CE JUMP JUMPDEST PUSH1 0x40 DUP1 MLOAD PUSH32 0x70A0823100000000000000000000000000000000000000000000000000000000 DUP2 MSTORE ADDRESS PUSH1 0x4 DUP3 ADD MSTORE SWAP1 MLOAD PUSH1 0x0 SWAP2 PUSH20 0xFFFFFFFFFFFFFFFFFFFFFFFFFFFFFFFFFFFFFFFF DUP6 AND SWAP2 PUSH4 0x70A08231 SWAP2 PUSH1 0x24 DUP1 DUP3 ADD SWAP3 PUSH1 0x20 SWAP3 SWAP1 SWAP2 SWAP1 DUP3 SWAP1 SUB ADD DUP2 DUP7 DUP1 EXTCODESIZE ISZERO DUP1 ISZERO PUSH2 0xEBD JUMPI PUSH1 0x0 DUP1 REVERT JUMPDEST POP GAS STATICCALL ISZERO DUP1 ISZERO PUSH2 0xED1 JUMPI RETURNDATASIZE PUSH1 0x0 DUP1 RETURNDATACOPY RETURNDATASIZE PUSH1 0x0 REVERT JUMPDEST POP POP POP POP PUSH1 0x40 MLOAD RETURNDATASIZE PUSH1 0x20 DUP2 LT ISZERO PUSH2 0xEE7 JUMPI PUSH1 0x0 DUP1 REVERT JUMPDEST POP MLOAD SWAP1 POP DUP1 PUSH2 0xEFD JUMPI POP NUMBER PUSH1 0x1 SWAP1 SWAP2 ADD SSTORE PUSH2 0x10CE JUMP JUMPDEST PUSH1 0x8 SLOAD DUP3 PUSH1 0x1 ADD SLOAD LT PUSH2 0xF11 JUMPI POP POP PUSH2 0x10CE JUMP JUMPDEST PUSH1 0x0 PUSH2 0xF21 DUP4 PUSH1 0x1 ADD SLOAD NUMBER PUSH2 0x9F4 JUMP JUMPDEST SWAP1 POP PUSH1 0x0 PUSH2 0xF42 PUSH1 0x2 SLOAD PUSH2 0xB02 DUP7 PUSH1 0x0 ADD SLOAD DUP6 PUSH2 0x1AA1 SWAP1 SWAP2 SWAP1 PUSH4 0xFFFFFFFF AND JUMP JUMPDEST PUSH1 0xC SLOAD PUSH1 0xD SLOAD SWAP2 SWAP3 POP PUSH20 0xFFFFFFFFFFFFFFFFFFFFFFFFFFFFFFFFFFFFFFFF SWAP1 DUP2 AND SWAP2 PUSH4 0x449A52F8 SWAP2 AND PUSH2 0xF7C DUP5 PUSH1 0x64 PUSH4 0xFFFFFFFF PUSH2 0x1B14 AND JUMP JUMPDEST PUSH1 0x40 MLOAD DUP4 PUSH4 0xFFFFFFFF AND PUSH1 0xE0 SHL DUP2 MSTORE PUSH1 0x4 ADD DUP1 DUP4 PUSH20 0xFFFFFFFFFFFFFFFFFFFFFFFFFFFFFFFFFFFFFFFF AND PUSH20 0xFFFFFFFFFFFFFFFFFFFFFFFFFFFFFFFFFFFFFFFF AND DUP2 MSTORE PUSH1 0x20 ADD DUP3 DUP2 MSTORE PUSH1 0x20 ADD SWAP3 POP POP POP PUSH1 0x0 PUSH1 0x40 MLOAD DUP1 DUP4 SUB DUP2 PUSH1 0x0 DUP8 DUP1 EXTCODESIZE ISZERO DUP1 ISZERO PUSH2 0xFE5 JUMPI PUSH1 0x0 DUP1 REVERT JUMPDEST POP GAS CALL ISZERO DUP1 ISZERO PUSH2 0xFF9 JUMPI RETURNDATASIZE PUSH1 0x0 DUP1 RETURNDATACOPY RETURNDATASIZE PUSH1 0x0 REVERT JUMPDEST POP POP PUSH1 0xC SLOAD PUSH1 0x40 DUP1 MLOAD PUSH32 0x449A52F800000000000000000000000000000000000000000000000000000000 DUP2 MSTORE ADDRESS PUSH1 0x4 DUP3 ADD MSTORE PUSH1 0x24 DUP2 ADD DUP7 SWAP1 MSTORE SWAP1 MLOAD PUSH20 0xFFFFFFFFFFFFFFFFFFFFFFFFFFFFFFFFFFFFFFFF SWAP1 SWAP3 AND SWAP4 POP PUSH4 0x449A52F8 SWAP3 POP PUSH1 0x44 DUP1 DUP3 ADD SWAP3 PUSH1 0x0 SWAP3 SWAP1 SWAP2 SWAP1 DUP3 SWAP1 SUB ADD DUP2 DUP4 DUP8 DUP1 EXTCODESIZE ISZERO DUP1 ISZERO PUSH2 0x1076 JUMPI PUSH1 0x0 DUP1 REVERT JUMPDEST POP GAS CALL ISZERO DUP1 ISZERO PUSH2 0x108A JUMPI RETURNDATASIZE PUSH1 0x0 DUP1 RETURNDATACOPY RETURNDATASIZE PUSH1 0x0 REVERT JUMPDEST POP POP POP POP PUSH2 0x10BB PUSH2 0x10AA DUP5 PUSH2 0xB02 PUSH1 0xB SLOAD DUP6 PUSH2 0x1AA1 SWAP1 SWAP2 SWAP1 PUSH4 0xFFFFFFFF AND JUMP JUMPDEST PUSH1 0x2 DUP7 ADD SLOAD SWAP1 PUSH4 0xFFFFFFFF PUSH2 0x1A2D AND JUMP JUMPDEST PUSH1 0x2 DUP6 ADD SSTORE POP POP NUMBER PUSH1 0x1 SWAP1 SWAP3 ADD SWAP2 SWAP1 SWAP2 SSTORE POP JUMPDEST POP JUMP JUMPDEST PUSH1 0xD SLOAD PUSH20 0xFFFFFFFFFFFFFFFFFFFFFFFFFFFFFFFFFFFFFFFF AND CALLER EQ PUSH2 0x1157 JUMPI PUSH1 0x40 DUP1 MLOAD PUSH32 0x8C379A000000000000000000000000000000000000000000000000000000000 DUP2 MSTORE PUSH1 0x20 PUSH1 0x4 DUP3 ADD MSTORE PUSH1 0x9 PUSH1 0x24 DUP3 ADD MSTORE PUSH32 0x6465763A207775743F0000000000000000000000000000000000000000000000 PUSH1 0x44 DUP3 ADD MSTORE SWAP1 MLOAD SWAP1 DUP2 SWAP1 SUB PUSH1 0x64 ADD SWAP1 REVERT JUMPDEST PUSH1 0xD DUP1 SLOAD PUSH32 0xFFFFFFFFFFFFFFFFFFFFFFFF0000000000000000000000000000000000000000 AND PUSH20 0xFFFFFFFFFFFFFFFFFFFFFFFFFFFFFFFFFFFFFFFF SWAP3 SWAP1 SWAP3 AND SWAP2 SWAP1 SWAP2 OR SWAP1 SSTORE JUMP JUMPDEST PUSH1 0x0 SLOAD PUSH20 0xFFFFFFFFFFFFFFFFFFFFFFFFFFFFFFFFFFFFFFFF AND SWAP1 JUMP JUMPDEST PUSH1 0x1 SLOAD DUP2 JUMP JUMPDEST PUSH1 0x0 PUSH1 0x3 SLOAD DUP6 LT DUP1 PUSH2 0x11D4 JUMPI POP DUP6 PUSH1 0x8 SLOAD GT ISZERO JUMPDEST ISZERO PUSH2 0x11E1 JUMPI POP PUSH1 0x0 PUSH2 0x1531 JUMP JUMPDEST PUSH1 0x3 SLOAD DUP7 LT ISZERO PUSH2 0x11F1 JUMPI PUSH1 0x3 SLOAD SWAP6 POP JUMPDEST DUP5 PUSH1 0x8 SLOAD LT ISZERO PUSH2 0x1201 JUMPI PUSH1 0x8 SLOAD SWAP5 POP JUMPDEST PUSH1 0x0 PUSH2 0x1258 PUSH1 0x0 PUSH2 0x122D DUP7 PUSH2 0x1221 PUSH1 0x3 SLOAD DUP12 PUSH2 0x19EB SWAP1 SWAP2 SWAP1 PUSH4 0xFFFFFFFF AND JUMP JUMPDEST SWAP1 PUSH4 0xFFFFFFFF PUSH2 0x1E81 AND JUMP JUMPDEST GT PUSH2 0x1239 JUMPI PUSH1 0x0 PUSH2 0x123C JUMP JUMPDEST PUSH1 0x1 JUMPDEST PUSH1 0xFF AND PUSH2 0x777 DUP7 PUSH2 0xB02 PUSH1 0x3 SLOAD DUP12 PUSH2 0x19EB SWAP1 SWAP2 SWAP1 PUSH4 0xFFFFFFFF AND JUMP JUMPDEST SWAP1 POP PUSH1 0x1 DUP2 LT ISZERO PUSH2 0x1267 JUMPI POP PUSH1 0x1 JUMPDEST PUSH1 0x0 PUSH2 0x12B2 PUSH1 0x0 PUSH2 0x1287 DUP8 PUSH2 0x1221 PUSH1 0x3 SLOAD DUP14 PUSH2 0x19EB SWAP1 SWAP2 SWAP1 PUSH4 0xFFFFFFFF AND JUMP JUMPDEST GT PUSH2 0x1293 JUMPI PUSH1 0x0 PUSH2 0x1296 JUMP JUMPDEST PUSH1 0x1 JUMPDEST PUSH1 0xFF AND PUSH2 0x777 DUP8 PUSH2 0xB02 PUSH1 0x3 SLOAD DUP14 PUSH2 0x19EB SWAP1 SWAP2 SWAP1 PUSH4 0xFFFFFFFF AND JUMP JUMPDEST SWAP1 POP PUSH1 0x1 DUP2 LT ISZERO PUSH2 0x12C1 JUMPI POP PUSH1 0x1 JUMPDEST DUP2 DUP2 EQ ISZERO PUSH2 0x1316 JUMPI PUSH2 0x130D PUSH2 0x12FD PUSH2 0x12F0 DUP7 PUSH2 0x12E4 DUP7 PUSH1 0x1 PUSH4 0xFFFFFFFF PUSH2 0x19EB AND JUMP JUMPDEST SWAP1 PUSH4 0xFFFFFFFF PUSH2 0x1AA1 AND JUMP JUMPDEST DUP9 SWAP1 PUSH4 0xFFFFFFFF PUSH2 0x19EB AND JUMP JUMPDEST PUSH2 0x12E4 DUP10 DUP12 PUSH4 0xFFFFFFFF PUSH2 0x19EB AND JUMP JUMPDEST SWAP3 POP POP POP PUSH2 0x1531 JUMP JUMPDEST PUSH1 0x0 PUSH2 0x133A PUSH2 0x132B DUP8 DUP5 PUSH4 0xFFFFFFFF PUSH2 0x1AA1 AND JUMP JUMPDEST PUSH1 0x3 SLOAD SWAP1 PUSH4 0xFFFFFFFF PUSH2 0x1A2D AND JUMP JUMPDEST SWAP1 POP PUSH1 0x0 PUSH2 0x1362 PUSH2 0x132B PUSH2 0x1355 DUP7 PUSH1 0x1 PUSH4 0xFFFFFFFF PUSH2 0x19EB AND JUMP JUMPDEST DUP10 SWAP1 PUSH4 0xFFFFFFFF PUSH2 0x1AA1 AND JUMP JUMPDEST SWAP1 POP DUP10 DUP10 PUSH2 0x13AD PUSH2 0x138E PUSH2 0x1381 DUP11 PUSH2 0x12E4 DUP11 PUSH1 0x1 PUSH4 0xFFFFFFFF PUSH2 0x19EB AND JUMP JUMPDEST DUP13 SWAP1 PUSH4 0xFFFFFFFF PUSH2 0x19EB AND JUMP JUMPDEST PUSH2 0x12E4 DUP6 DUP6 GT PUSH2 0x139E JUMPI DUP6 PUSH2 0x13A0 JUMP JUMPDEST DUP5 JUMPDEST DUP5 SWAP1 PUSH4 0xFFFFFFFF PUSH2 0x19EB AND JUMP JUMPDEST SWAP7 POP DUP2 DUP5 GT DUP1 ISZERO PUSH2 0x13BE JUMPI POP DUP1 DUP5 GT ISZERO JUMPDEST ISZERO PUSH2 0x141D JUMPI PUSH2 0x141A PUSH2 0x140D PUSH2 0x13FD PUSH1 0x0 DUP9 GT PUSH2 0x13DB JUMPI PUSH1 0x0 PUSH2 0x13F0 JUMP JUMPDEST PUSH2 0x13F0 DUP12 PUSH2 0x12E4 DUP11 PUSH1 0x1 PUSH4 0xFFFFFFFF PUSH2 0x19EB AND JUMP JUMPDEST DUP14 SWAP1 PUSH4 0xFFFFFFFF PUSH2 0x19EB AND JUMP JUMPDEST PUSH2 0x12E4 DUP8 DUP7 PUSH4 0xFFFFFFFF PUSH2 0x19EB AND JUMP JUMPDEST DUP9 SWAP1 PUSH4 0xFFFFFFFF PUSH2 0x1A2D AND JUMP JUMPDEST SWAP7 POP JUMPDEST POP DUP9 SWAP1 POP DUP8 DUP8 DUP5 DUP5 GT ISZERO PUSH2 0x1529 JUMPI DUP4 PUSH1 0x0 PUSH2 0x1442 DUP5 PUSH2 0xB02 DUP5 DUP11 PUSH4 0xFFFFFFFF PUSH2 0x19EB AND JUMP JUMPDEST SWAP1 POP PUSH1 0x1 DUP2 GT ISZERO PUSH2 0x14F8 JUMPI PUSH1 0x0 PUSH2 0x147F PUSH2 0x1472 PUSH2 0x12F0 DUP8 PUSH2 0xB02 DUP9 PUSH2 0x12E4 PUSH1 0x3 SLOAD DUP16 PUSH2 0x19EB SWAP1 SWAP2 SWAP1 PUSH4 0xFFFFFFFF AND JUMP JUMPDEST DUP7 SWAP1 PUSH4 0xFFFFFFFF PUSH2 0x1AA1 AND JUMP JUMPDEST SWAP1 POP PUSH1 0x0 PUSH2 0x14C5 PUSH2 0x14B8 PUSH2 0x14AB DUP8 PUSH2 0x12E4 PUSH1 0x1 PUSH2 0xB0E DUP13 PUSH2 0xB02 PUSH1 0x3 SLOAD DUP14 PUSH2 0x19EB SWAP1 SWAP2 SWAP1 PUSH4 0xFFFFFFFF AND JUMP JUMPDEST DUP10 SWAP1 PUSH4 0xFFFFFFFF PUSH2 0x19EB AND JUMP JUMPDEST DUP8 SWAP1 PUSH4 0xFFFFFFFF PUSH2 0x1AA1 AND JUMP JUMPDEST SWAP1 POP PUSH2 0x14EF PUSH2 0x14E2 PUSH1 0x2 PUSH2 0xB02 PUSH2 0x14B8 DUP7 DUP7 PUSH4 0xFFFFFFFF PUSH2 0x1A2D AND JUMP JUMPDEST DUP14 SWAP1 PUSH4 0xFFFFFFFF PUSH2 0x1A2D AND JUMP JUMPDEST SWAP12 POP POP POP PUSH2 0x1526 JUMP JUMPDEST PUSH2 0x1523 PUSH2 0x1516 PUSH2 0x1472 PUSH2 0x12F0 DUP7 PUSH2 0x12E4 DUP15 PUSH1 0x2 PUSH4 0xFFFFFFFF PUSH2 0x19EB AND JUMP JUMPDEST DUP12 SWAP1 PUSH4 0xFFFFFFFF PUSH2 0x1A2D AND JUMP JUMPDEST SWAP10 POP JUMPDEST POP POP JUMPDEST POP POP POP POP POP POP POP JUMPDEST SWAP6 SWAP5 POP POP POP POP POP JUMP JUMPDEST PUSH1 0x8 SLOAD DUP2 JUMP JUMPDEST PUSH1 0x9 SLOAD DUP2 JUMP JUMPDEST PUSH1 0x0 PUSH2 0x1550 PUSH2 0x245C JUMP JUMPDEST POP PUSH20 0xFFFFFFFFFFFFFFFFFFFFFFFFFFFFFFFFFFFFFFFF DUP4 AND PUSH1 0x0 SWAP1 DUP2 MSTORE PUSH1 0xF PUSH1 0x20 SWAP1 DUP2 MSTORE PUSH1 0x40 SWAP2 DUP3 SWAP1 KECCAK256 DUP3 MLOAD PUSH1 0x80 DUP2 ADD DUP5 MSTORE DUP2 SLOAD DUP2 MSTORE PUSH1 0x1 DUP3 ADD SLOAD SWAP3 DUP2 ADD SWAP3 SWAP1 SWAP3 MSTORE PUSH1 0x2 DUP2 ADD SLOAD SWAP3 DUP3 ADD SWAP3 SWAP1 SWAP3 MSTORE PUSH1 0x3 SWAP1 SWAP2 ADD SLOAD PUSH1 0xFF AND ISZERO ISZERO PUSH1 0x60 DUP3 ADD DUP2 SWAP1 MSTORE PUSH2 0x15BE JUMPI PUSH1 0x0 SWAP2 POP POP PUSH2 0xA65 JUMP JUMPDEST PUSH20 0xFFFFFFFFFFFFFFFFFFFFFFFFFFFFFFFFFFFFFFFF DUP1 DUP6 AND PUSH1 0x0 DUP2 DUP2 MSTORE PUSH1 0x10 PUSH1 0x20 SWAP1 DUP2 MSTORE PUSH1 0x40 DUP1 DUP4 KECCAK256 SWAP5 DUP9 AND DUP4 MSTORE SWAP4 DUP2 MSTORE DUP4 DUP3 KECCAK256 DUP6 DUP6 ADD MLOAD DUP6 MLOAD PUSH32 0x70A0823100000000000000000000000000000000000000000000000000000000 DUP2 MSTORE ADDRESS PUSH1 0x4 DUP3 ADD MSTORE SWAP6 MLOAD SWAP2 SWAP6 SWAP1 SWAP5 SWAP3 PUSH4 0x70A08231 SWAP3 PUSH1 0x24 DUP1 DUP5 ADD SWAP4 DUP3 SWAP1 SUB ADD DUP2 DUP7 DUP1 EXTCODESIZE ISZERO DUP1 ISZERO PUSH2 0x1648 JUMPI PUSH1 0x0 DUP1 REVERT JUMPDEST POP GAS STATICCALL ISZERO DUP1 ISZERO PUSH2 0x165C JUMPI RETURNDATASIZE PUSH1 0x0 DUP1 RETURNDATACOPY RETURNDATASIZE PUSH1 0x0 REVERT JUMPDEST POP POP POP POP PUSH1 0x40 MLOAD RETURNDATASIZE PUSH1 0x20 DUP2 LT ISZERO PUSH2 0x1672 JUMPI PUSH1 0x0 DUP1 REVERT JUMPDEST POP MLOAD PUSH1 0x20 DUP6 ADD MLOAD SWAP1 SWAP2 POP NUMBER GT DUP1 ISZERO PUSH2 0x1689 JUMPI POP DUP1 ISZERO ISZERO JUMPDEST DUP1 ISZERO PUSH2 0x169A JUMPI POP PUSH1 0x8 SLOAD DUP5 PUSH1 0x20 ADD MLOAD LT JUMPDEST ISZERO PUSH2 0x1700 JUMPI PUSH1 0x0 PUSH2 0x16AF DUP6 PUSH1 0x20 ADD MLOAD NUMBER PUSH2 0x9F4 JUMP JUMPDEST SWAP1 POP PUSH1 0x0 PUSH2 0x16D0 PUSH1 0x2 SLOAD PUSH2 0xB02 DUP9 PUSH1 0x0 ADD MLOAD DUP6 PUSH2 0x1AA1 SWAP1 SWAP2 SWAP1 PUSH4 0xFFFFFFFF AND JUMP JUMPDEST SWAP1 POP PUSH2 0x16FB PUSH2 0x16EE DUP5 PUSH2 0xB02 PUSH1 0xB SLOAD DUP6 PUSH2 0x1AA1 SWAP1 SWAP2 SWAP1 PUSH4 0xFFFFFFFF AND JUMP JUMPDEST DUP6 SWAP1 PUSH4 0xFFFFFFFF PUSH2 0x1A2D AND JUMP JUMPDEST SWAP4 POP POP POP JUMPDEST PUSH1 0x1 DUP4 ADD SLOAD PUSH1 0xB SLOAD DUP5 SLOAD PUSH2 0x1723 SWAP3 SWAP2 PUSH2 0xB0E SWAP2 PUSH2 0xB02 SWAP1 DUP8 PUSH4 0xFFFFFFFF PUSH2 0x1AA1 AND JUMP JUMPDEST SWAP8 SWAP7 POP POP POP POP POP POP POP JUMP JUMPDEST PUSH1 0x6 SLOAD DUP2 JUMP JUMPDEST PUSH1 0xB SLOAD DUP2 JUMP JUMPDEST PUSH1 0xD SLOAD PUSH20 0xFFFFFFFFFFFFFFFFFFFFFFFFFFFFFFFFFFFFFFFF AND DUP2 JUMP JUMPDEST PUSH1 0xC SLOAD PUSH20 0xFFFFFFFFFFFFFFFFFFFFFFFFFFFFFFFFFFFFFFFF AND DUP2 JUMP JUMPDEST PUSH2 0x177A PUSH2 0x19E7 JUMP JUMPDEST PUSH1 0x0 SLOAD PUSH20 0xFFFFFFFFFFFFFFFFFFFFFFFFFFFFFFFFFFFFFFFF SWAP1 DUP2 AND SWAP2 AND EQ PUSH2 0x1803 JUMPI PUSH1 0x40 DUP1 MLOAD PUSH32 0x8C379A000000000000000000000000000000000000000000000000000000000 DUP2 MSTORE PUSH1 0x20 PUSH1 0x4 DUP3 ADD DUP2 SWAP1 MSTORE PUSH1 0x24 DUP3 ADD MSTORE PUSH32 0x4F776E61626C653A2063616C6C6572206973206E6F7420746865206F776E6572 PUSH1 0x44 DUP3 ADD MSTORE SWAP1 MLOAD SWAP1 DUP2 SWAP1 SUB PUSH1 0x64 ADD SWAP1 REVERT JUMPDEST PUSH2 0x10CE DUP2 PUSH2 0x1EC3 JUMP JUMPDEST PUSH20 0xFFFFFFFFFFFFFFFFFFFFFFFFFFFFFFFFFFFFFFFF DUP3 AND PUSH1 0x0 SWAP1 DUP2 MSTORE PUSH1 0xF PUSH1 0x20 SWAP1 DUP2 MSTORE PUSH1 0x40 DUP1 DUP4 KECCAK256 PUSH1 0x10 DUP4 MSTORE DUP2 DUP5 KECCAK256 CALLER DUP6 MSTORE SWAP1 SWAP3 MSTORE SWAP1 SWAP2 KECCAK256 DUP1 SLOAD DUP4 GT ISZERO PUSH2 0x18B4 JUMPI PUSH1 0x40 DUP1 MLOAD PUSH32 0x8C379A000000000000000000000000000000000000000000000000000000000 DUP2 MSTORE PUSH1 0x20 PUSH1 0x4 DUP3 ADD MSTORE PUSH1 0x12 PUSH1 0x24 DUP3 ADD MSTORE PUSH32 0x77697468647261773A206E6F7420676F6F640000000000000000000000000000 PUSH1 0x44 DUP3 ADD MSTORE SWAP1 MLOAD SWAP1 DUP2 SWAP1 SUB PUSH1 0x64 ADD SWAP1 REVERT JUMPDEST PUSH2 0x18BD DUP5 PUSH2 0xE05 JUMP JUMPDEST PUSH1 0x0 PUSH2 0x18E8 DUP3 PUSH1 0x1 ADD SLOAD PUSH2 0xB0E PUSH1 0xB SLOAD PUSH2 0xB02 DUP8 PUSH1 0x2 ADD SLOAD DUP8 PUSH1 0x0 ADD SLOAD PUSH2 0x1AA1 SWAP1 SWAP2 SWAP1 PUSH4 0xFFFFFFFF AND JUMP JUMPDEST SWAP1 POP DUP1 ISZERO PUSH2 0x18FA JUMPI PUSH2 0x18FA CALLER DUP3 PUSH2 0x1B56 JUMP JUMPDEST DUP4 ISZERO PUSH2 0x193B JUMPI DUP2 SLOAD PUSH2 0x1912 SWAP1 DUP6 PUSH4 0xFFFFFFFF PUSH2 0x19EB AND JUMP JUMPDEST DUP3 SSTORE PUSH2 0x193B PUSH20 0xFFFFFFFFFFFFFFFFFFFFFFFFFFFFFFFFFFFFFFFF DUP7 AND CALLER DUP7 PUSH4 0xFFFFFFFF PUSH2 0x1DF4 AND JUMP JUMPDEST PUSH1 0xB SLOAD PUSH1 0x2 DUP5 ADD SLOAD DUP4 SLOAD PUSH2 0x195A SWAP3 SWAP2 PUSH2 0xB02 SWAP2 SWAP1 PUSH4 0xFFFFFFFF PUSH2 0x1AA1 AND JUMP JUMPDEST PUSH1 0x1 DUP4 ADD SSTORE PUSH1 0x40 DUP1 MLOAD DUP6 DUP2 MSTORE SWAP1 MLOAD PUSH20 0xFFFFFFFFFFFFFFFFFFFFFFFFFFFFFFFFFFFFFFFF DUP8 AND SWAP2 CALLER SWAP2 PUSH32 0x9B1BFA7FA9EE420A16E124F794C35AC9F90472ACC99140EB2F6447C714CAD8EB SWAP2 DUP2 SWAP1 SUB PUSH1 0x20 ADD SWAP1 LOG3 POP POP POP POP POP JUMP JUMPDEST PUSH1 0xE DUP2 DUP2 SLOAD DUP2 LT PUSH2 0x19C0 JUMPI INVALID JUMPDEST PUSH1 0x0 SWAP2 DUP3 MSTORE PUSH1 0x20 SWAP1 SWAP2 KECCAK256 ADD SLOAD PUSH20 0xFFFFFFFFFFFFFFFFFFFFFFFFFFFFFFFFFFFFFFFF AND SWAP1 POP DUP2 JUMP JUMPDEST CALLER SWAP1 JUMP JUMPDEST PUSH1 0x0 PUSH2 0xA62 DUP4 DUP4 PUSH1 0x40 MLOAD DUP1 PUSH1 0x40 ADD PUSH1 0x40 MSTORE DUP1 PUSH1 0x1E DUP2 MSTORE PUSH1 0x20 ADD PUSH32 0x536166654D6174683A207375627472616374696F6E206F766572666C6F770000 DUP2 MSTORE POP PUSH2 0x1FBC JUMP JUMPDEST PUSH1 0x0 DUP3 DUP3 ADD DUP4 DUP2 LT ISZERO PUSH2 0xA62 JUMPI PUSH1 0x40 DUP1 MLOAD PUSH32 0x8C379A000000000000000000000000000000000000000000000000000000000 DUP2 MSTORE PUSH1 0x20 PUSH1 0x4 DUP3 ADD MSTORE PUSH1 0x1B PUSH1 0x24 DUP3 ADD MSTORE PUSH32 0x536166654D6174683A206164646974696F6E206F766572666C6F770000000000 PUSH1 0x44 DUP3 ADD MSTORE SWAP1 MLOAD SWAP1 DUP2 SWAP1 SUB PUSH1 0x64 ADD SWAP1 REVERT JUMPDEST PUSH1 0x0 DUP3 PUSH2 0x1AB0 JUMPI POP PUSH1 0x0 PUSH2 0xA65 JUMP JUMPDEST DUP3 DUP3 MUL DUP3 DUP5 DUP3 DUP2 PUSH2 0x1ABD JUMPI INVALID JUMPDEST DIV EQ PUSH2 0xA62 JUMPI PUSH1 0x40 MLOAD PUSH32 0x8C379A000000000000000000000000000000000000000000000000000000000 DUP2 MSTORE PUSH1 0x4 ADD DUP1 DUP1 PUSH1 0x20 ADD DUP3 DUP2 SUB DUP3 MSTORE PUSH1 0x21 DUP2 MSTORE PUSH1 0x20 ADD DUP1 PUSH2 0x24AD PUSH1 0x21 SWAP2 CODECOPY PUSH1 0x40 ADD SWAP2 POP POP PUSH1 0x40 MLOAD DUP1 SWAP2 SUB SWAP1 REVERT JUMPDEST PUSH1 0x0 PUSH2 0xA62 DUP4 DUP4 PUSH1 0x40 MLOAD DUP1 PUSH1 0x40 ADD PUSH1 0x40 MSTORE DUP1 PUSH1 0x1A DUP2 MSTORE PUSH1 0x20 ADD PUSH32 0x536166654D6174683A206469766973696F6E206279207A65726F000000000000 DUP2 MSTORE POP PUSH2 0x206D JUMP JUMPDEST PUSH1 0xC SLOAD PUSH1 0x40 DUP1 MLOAD PUSH32 0x70A0823100000000000000000000000000000000000000000000000000000000 DUP2 MSTORE ADDRESS PUSH1 0x4 DUP3 ADD MSTORE SWAP1 MLOAD PUSH1 0x0 SWAP3 PUSH20 0xFFFFFFFFFFFFFFFFFFFFFFFFFFFFFFFFFFFFFFFF AND SWAP2 PUSH4 0x70A08231 SWAP2 PUSH1 0x24 DUP1 DUP4 ADD SWAP3 PUSH1 0x20 SWAP3 SWAP2 SWAP1 DUP3 SWAP1 SUB ADD DUP2 DUP7 DUP1 EXTCODESIZE ISZERO DUP1 ISZERO PUSH2 0x1BC7 JUMPI PUSH1 0x0 DUP1 REVERT JUMPDEST POP GAS STATICCALL ISZERO DUP1 ISZERO PUSH2 0x1BDB JUMPI RETURNDATASIZE PUSH1 0x0 DUP1 RETURNDATACOPY RETURNDATASIZE PUSH1 0x0 REVERT JUMPDEST POP POP POP POP PUSH1 0x40 MLOAD RETURNDATASIZE PUSH1 0x20 DUP2 LT ISZERO PUSH2 0x1BF1 JUMPI PUSH1 0x0 DUP1 REVERT JUMPDEST POP MLOAD SWAP1 POP DUP1 DUP3 GT ISZERO PUSH2 0x1CAB JUMPI PUSH1 0xC SLOAD PUSH1 0x40 DUP1 MLOAD PUSH32 0xA9059CBB00000000000000000000000000000000000000000000000000000000 DUP2 MSTORE PUSH20 0xFFFFFFFFFFFFFFFFFFFFFFFFFFFFFFFFFFFFFFFF DUP7 DUP2 AND PUSH1 0x4 DUP4 ADD MSTORE PUSH1 0x24 DUP3 ADD DUP6 SWAP1 MSTORE SWAP2 MLOAD SWAP2 SWAP1 SWAP3 AND SWAP2 PUSH4 0xA9059CBB SWAP2 PUSH1 0x44 DUP1 DUP4 ADD SWAP3 PUSH1 0x20 SWAP3 SWAP2 SWAP1 DUP3 SWAP1 SUB ADD DUP2 PUSH1 0x0 DUP8 DUP1 EXTCODESIZE ISZERO DUP1 ISZERO PUSH2 0x1C79 JUMPI PUSH1 0x0 DUP1 REVERT JUMPDEST POP GAS CALL ISZERO DUP1 ISZERO PUSH2 0x1C8D JUMPI RETURNDATASIZE PUSH1 0x0 DUP1 RETURNDATACOPY RETURNDATASIZE PUSH1 0x0 REVERT JUMPDEST POP POP POP POP PUSH1 0x40 MLOAD RETURNDATASIZE PUSH1 0x20 DUP2 LT ISZERO PUSH2 0x1CA3 JUMPI PUSH1 0x0 DUP1 REVERT JUMPDEST POP PUSH2 0x1D54 SWAP1 POP JUMP JUMPDEST PUSH1 0xC SLOAD PUSH1 0x40 DUP1 MLOAD PUSH32 0xA9059CBB00000000000000000000000000000000000000000000000000000000 DUP2 MSTORE PUSH20 0xFFFFFFFFFFFFFFFFFFFFFFFFFFFFFFFFFFFFFFFF DUP7 DUP2 AND PUSH1 0x4 DUP4 ADD MSTORE PUSH1 0x24 DUP3 ADD DUP7 SWAP1 MSTORE SWAP2 MLOAD SWAP2 SWAP1 SWAP3 AND SWAP2 PUSH4 0xA9059CBB SWAP2 PUSH1 0x44 DUP1 DUP4 ADD SWAP3 PUSH1 0x20 SWAP3 SWAP2 SWAP1 DUP3 SWAP1 SUB ADD DUP2 PUSH1 0x0 DUP8 DUP1 EXTCODESIZE ISZERO DUP1 ISZERO PUSH2 0x1D27 JUMPI PUSH1 0x0 DUP1 REVERT JUMPDEST POP GAS CALL ISZERO DUP1 ISZERO PUSH2 0x1D3B JUMPI RETURNDATASIZE PUSH1 0x0 DUP1 RETURNDATACOPY RETURNDATASIZE PUSH1 0x0 REVERT JUMPDEST POP POP POP POP PUSH1 0x40 MLOAD RETURNDATASIZE PUSH1 0x20 DUP2 LT ISZERO PUSH2 0x1D51 JUMPI PUSH1 0x0 DUP1 REVERT JUMPDEST POP POP JUMPDEST POP POP POP JUMP JUMPDEST PUSH1 0x40 DUP1 MLOAD PUSH20 0xFFFFFFFFFFFFFFFFFFFFFFFFFFFFFFFFFFFFFFFF DUP1 DUP7 AND PUSH1 0x24 DUP4 ADD MSTORE DUP5 AND PUSH1 0x44 DUP3 ADD MSTORE PUSH1 0x64 DUP1 DUP3 ADD DUP5 SWAP1 MSTORE DUP3 MLOAD DUP1 DUP4 SUB SWAP1 SWAP2 ADD DUP2 MSTORE PUSH1 0x84 SWAP1 SWAP2 ADD SWAP1 SWAP2 MSTORE PUSH1 0x20 DUP2 ADD DUP1 MLOAD PUSH28 0xFFFFFFFFFFFFFFFFFFFFFFFFFFFFFFFFFFFFFFFFFFFFFFFFFFFFFFFF AND PUSH32 0x23B872DD00000000000000000000000000000000000000000000000000000000 OR SWAP1 MSTORE PUSH2 0x1DEE SWAP1 DUP6 SWAP1 PUSH2 0x20EC JUMP JUMPDEST POP POP POP POP JUMP JUMPDEST PUSH1 0x40 DUP1 MLOAD PUSH20 0xFFFFFFFFFFFFFFFFFFFFFFFFFFFFFFFFFFFFFFFF DUP5 AND PUSH1 0x24 DUP3 ADD MSTORE PUSH1 0x44 DUP1 DUP3 ADD DUP5 SWAP1 MSTORE DUP3 MLOAD DUP1 DUP4 SUB SWAP1 SWAP2 ADD DUP2 MSTORE PUSH1 0x64 SWAP1 SWAP2 ADD SWAP1 SWAP2 MSTORE PUSH1 0x20 DUP2 ADD DUP1 MLOAD PUSH28 0xFFFFFFFFFFFFFFFFFFFFFFFFFFFFFFFFFFFFFFFFFFFFFFFFFFFFFFFF AND PUSH32 0xA9059CBB00000000000000000000000000000000000000000000000000000000 OR SWAP1 MSTORE PUSH2 0x1D54 SWAP1 DUP5 SWAP1 PUSH2 0x20EC JUMP JUMPDEST PUSH1 0x0 PUSH2 0xA62 DUP4 DUP4 PUSH1 0x40 MLOAD DUP1 PUSH1 0x40 ADD PUSH1 0x40 MSTORE DUP1 PUSH1 0x18 DUP2 MSTORE PUSH1 0x20 ADD PUSH32 0x536166654D6174683A206D6F64756C6F206279207A65726F0000000000000000 DUP2 MSTORE POP PUSH2 0x21C4 JUMP JUMPDEST PUSH20 0xFFFFFFFFFFFFFFFFFFFFFFFFFFFFFFFFFFFFFFFF DUP2 AND PUSH2 0x1F2F JUMPI PUSH1 0x40 MLOAD PUSH32 0x8C379A000000000000000000000000000000000000000000000000000000000 DUP2 MSTORE PUSH1 0x4 ADD DUP1 DUP1 PUSH1 0x20 ADD DUP3 DUP2 SUB DUP3 MSTORE PUSH1 0x26 DUP2 MSTORE PUSH1 0x20 ADD DUP1 PUSH2 0x2487 PUSH1 0x26 SWAP2 CODECOPY PUSH1 0x40 ADD SWAP2 POP POP PUSH1 0x40 MLOAD DUP1 SWAP2 SUB SWAP1 REVERT JUMPDEST PUSH1 0x0 DUP1 SLOAD PUSH1 0x40 MLOAD PUSH20 0xFFFFFFFFFFFFFFFFFFFFFFFFFFFFFFFFFFFFFFFF DUP1 DUP6 AND SWAP4 SWAP3 AND SWAP2 PUSH32 0x8BE0079C531659141344CD1FD0A4F28419497F9722A3DAAFE3B4186F6B6457E0 SWAP2 LOG3 PUSH1 0x0 DUP1 SLOAD PUSH32 0xFFFFFFFFFFFFFFFFFFFFFFFF0000000000000000000000000000000000000000 AND PUSH20 0xFFFFFFFFFFFFFFFFFFFFFFFFFFFFFFFFFFFFFFFF SWAP3 SWAP1 SWAP3 AND SWAP2 SWAP1 SWAP2 OR SWAP1 SSTORE JUMP JUMPDEST PUSH1 0x0 DUP2 DUP5 DUP5 GT ISZERO PUSH2 0x2065 JUMPI PUSH1 0x40 MLOAD PUSH32 0x8C379A000000000000000000000000000000000000000000000000000000000 DUP2 MSTORE PUSH1 0x4 ADD DUP1 DUP1 PUSH1 0x20 ADD DUP3 DUP2 SUB DUP3 MSTORE DUP4 DUP2 DUP2 MLOAD DUP2 MSTORE PUSH1 0x20 ADD SWAP2 POP DUP1 MLOAD SWAP1 PUSH1 0x20 ADD SWAP1 DUP1 DUP4 DUP4 PUSH1 0x0 JUMPDEST DUP4 DUP2 LT ISZERO PUSH2 0x202A JUMPI DUP2 DUP2 ADD MLOAD DUP4 DUP3 ADD MSTORE PUSH1 0x20 ADD PUSH2 0x2012 JUMP JUMPDEST POP POP POP POP SWAP1 POP SWAP1 DUP2 ADD SWAP1 PUSH1 0x1F AND DUP1 ISZERO PUSH2 0x2057 JUMPI DUP1 DUP3 SUB DUP1 MLOAD PUSH1 0x1 DUP4 PUSH1 0x20 SUB PUSH2 0x100 EXP SUB NOT AND DUP2 MSTORE PUSH1 0x20 ADD SWAP2 POP JUMPDEST POP SWAP3 POP POP POP PUSH1 0x40 MLOAD DUP1 SWAP2 SUB SWAP1 REVERT JUMPDEST POP POP POP SWAP1 SUB SWAP1 JUMP JUMPDEST PUSH1 0x0 DUP2 DUP4 PUSH2 0x20D6 JUMPI PUSH1 0x40 MLOAD PUSH32 0x8C379A000000000000000000000000000000000000000000000000000000000 DUP2 MSTORE PUSH1 0x20 PUSH1 0x4 DUP3 ADD DUP2 DUP2 MSTORE DUP4 MLOAD PUSH1 0x24 DUP5 ADD MSTORE DUP4 MLOAD SWAP1 SWAP3 DUP4 SWAP3 PUSH1 0x44 SWAP1 SWAP2 ADD SWAP2 SWAP1 DUP6 ADD SWAP1 DUP1 DUP4 DUP4 PUSH1 0x0 DUP4 ISZERO PUSH2 0x202A JUMPI DUP2 DUP2 ADD MLOAD DUP4 DUP3 ADD MSTORE PUSH1 0x20 ADD PUSH2 0x2012 JUMP JUMPDEST POP PUSH1 0x0 DUP4 DUP6 DUP2 PUSH2 0x20E2 JUMPI INVALID JUMPDEST DIV SWAP6 SWAP5 POP POP POP POP POP JUMP JUMPDEST PUSH1 0x60 PUSH2 0x214E DUP3 PUSH1 0x40 MLOAD DUP1 PUSH1 0x40 ADD PUSH1 0x40 MSTORE DUP1 PUSH1 0x20 DUP2 MSTORE PUSH1 0x20 ADD PUSH32 0x5361666545524332303A206C6F772D6C6576656C2063616C6C206661696C6564 DUP2 MSTORE POP DUP6 PUSH20 0xFFFFFFFFFFFFFFFFFFFFFFFFFFFFFFFFFFFFFFFF AND PUSH2 0x2240 SWAP1 SWAP3 SWAP2 SWAP1 PUSH4 0xFFFFFFFF AND JUMP JUMPDEST DUP1 MLOAD SWAP1 SWAP2 POP ISZERO PUSH2 0x1D54 JUMPI DUP1 DUP1 PUSH1 0x20 ADD SWAP1 MLOAD PUSH1 0x20 DUP2 LT ISZERO PUSH2 0x216D JUMPI PUSH1 0x0 DUP1 REVERT JUMPDEST POP MLOAD PUSH2 0x1D54 JUMPI PUSH1 0x40 MLOAD PUSH32 0x8C379A000000000000000000000000000000000000000000000000000000000 DUP2 MSTORE PUSH1 0x4 ADD DUP1 DUP1 PUSH1 0x20 ADD DUP3 DUP2 SUB DUP3 MSTORE PUSH1 0x2A DUP2 MSTORE PUSH1 0x20 ADD DUP1 PUSH2 0x24CE PUSH1 0x2A SWAP2 CODECOPY PUSH1 0x40 ADD SWAP2 POP POP PUSH1 0x40 MLOAD DUP1 SWAP2 SUB SWAP1 REVERT JUMPDEST PUSH1 0x0 DUP2 DUP4 PUSH2 0x222D JUMPI PUSH1 0x40 MLOAD PUSH32 0x8C379A000000000000000000000000000000000000000000000000000000000 DUP2 MSTORE PUSH1 0x20 PUSH1 0x4 DUP3 ADD DUP2 DUP2 MSTORE DUP4 MLOAD PUSH1 0x24 DUP5 ADD MSTORE DUP4 MLOAD SWAP1 SWAP3 DUP4 SWAP3 PUSH1 0x44 SWAP1 SWAP2 ADD SWAP2 SWAP1 DUP6 ADD SWAP1 DUP1 DUP4 DUP4 PUSH1 0x0 DUP4 ISZERO PUSH2 0x202A JUMPI DUP2 DUP2 ADD MLOAD DUP4 DUP3 ADD MSTORE PUSH1 0x20 ADD PUSH2 0x2012 JUMP JUMPDEST POP DUP3 DUP5 DUP2 PUSH2 0x2237 JUMPI INVALID JUMPDEST MOD SWAP5 SWAP4 POP POP POP POP JUMP JUMPDEST PUSH1 0x60 PUSH2 0x224F DUP5 DUP5 PUSH1 0x0 DUP6 PUSH2 0x2257 JUMP JUMPDEST SWAP5 SWAP4 POP POP POP POP JUMP JUMPDEST PUSH1 0x60 PUSH2 0x2262 DUP6 PUSH2 0x2423 JUMP JUMPDEST PUSH2 0x22CD JUMPI PUSH1 0x40 DUP1 MLOAD PUSH32 0x8C379A000000000000000000000000000000000000000000000000000000000 DUP2 MSTORE PUSH1 0x20 PUSH1 0x4 DUP3 ADD MSTORE PUSH1 0x1D PUSH1 0x24 DUP3 ADD MSTORE PUSH32 0x416464726573733A2063616C6C20746F206E6F6E2D636F6E7472616374000000 PUSH1 0x44 DUP3 ADD MSTORE SWAP1 MLOAD SWAP1 DUP2 SWAP1 SUB PUSH1 0x64 ADD SWAP1 REVERT JUMPDEST PUSH1 0x0 PUSH1 0x60 DUP7 PUSH20 0xFFFFFFFFFFFFFFFFFFFFFFFFFFFFFFFFFFFFFFFF AND DUP6 DUP8 PUSH1 0x40 MLOAD DUP1 DUP3 DUP1 MLOAD SWAP1 PUSH1 0x20 ADD SWAP1 DUP1 DUP4 DUP4 JUMPDEST PUSH1 0x20 DUP4 LT PUSH2 0x2337 JUMPI DUP1 MLOAD DUP3 MSTORE PUSH32 0xFFFFFFFFFFFFFFFFFFFFFFFFFFFFFFFFFFFFFFFFFFFFFFFFFFFFFFFFFFFFFFE0 SWAP1 SWAP3 ADD SWAP2 PUSH1 0x20 SWAP2 DUP3 ADD SWAP2 ADD PUSH2 0x22FA JUMP JUMPDEST PUSH1 0x1 DUP4 PUSH1 0x20 SUB PUSH2 0x100 EXP SUB DUP1 NOT DUP3 MLOAD AND DUP2 DUP5 MLOAD AND DUP1 DUP3 OR DUP6 MSTORE POP POP POP POP POP POP SWAP1 POP ADD SWAP2 POP POP PUSH1 0x0 PUSH1 0x40 MLOAD DUP1 DUP4 SUB DUP2 DUP6 DUP8 GAS CALL SWAP3 POP POP POP RETURNDATASIZE DUP1 PUSH1 0x0 DUP2 EQ PUSH2 0x2399 JUMPI PUSH1 0x40 MLOAD SWAP2 POP PUSH1 0x1F NOT PUSH1 0x3F RETURNDATASIZE ADD AND DUP3 ADD PUSH1 0x40 MSTORE RETURNDATASIZE DUP3 MSTORE RETURNDATASIZE PUSH1 0x0 PUSH1 0x20 DUP5 ADD RETURNDATACOPY PUSH2 0x239E JUMP JUMPDEST PUSH1 0x60 SWAP2 POP JUMPDEST POP SWAP2 POP SWAP2 POP DUP2 ISZERO PUSH2 0x23B2 JUMPI SWAP2 POP PUSH2 0x224F SWAP1 POP JUMP JUMPDEST DUP1 MLOAD ISZERO PUSH2 0x23C2 JUMPI DUP1 MLOAD DUP1 DUP3 PUSH1 0x20 ADD REVERT JUMPDEST PUSH1 0x40 MLOAD PUSH32 0x8C379A000000000000000000000000000000000000000000000000000000000 DUP2 MSTORE PUSH1 0x20 PUSH1 0x4 DUP3 ADD DUP2 DUP2 MSTORE DUP7 MLOAD PUSH1 0x24 DUP5 ADD MSTORE DUP7 MLOAD DUP8 SWAP4 SWAP2 SWAP3 DUP4 SWAP3 PUSH1 0x44 ADD SWAP2 SWAP1 DUP6 ADD SWAP1 DUP1 DUP4 DUP4 PUSH1 0x0 DUP4 ISZERO PUSH2 0x202A JUMPI DUP2 DUP2 ADD MLOAD DUP4 DUP3 ADD MSTORE PUSH1 0x20 ADD PUSH2 0x2012 JUMP JUMPDEST PUSH1 0x0 DUP2 EXTCODEHASH PUSH32 0xC5D2460186F7233C927E7DB2DCC703C0E500B653CA82273B7BFAD8045D85A470 DUP2 DUP2 EQ DUP1 ISZERO SWAP1 PUSH2 0x224F JUMPI POP POP ISZERO ISZERO SWAP3 SWAP2 POP POP JUMP JUMPDEST PUSH1 0x40 MLOAD DUP1 PUSH1 0x80 ADD PUSH1 0x40 MSTORE DUP1 PUSH1 0x0 DUP2 MSTORE PUSH1 0x20 ADD PUSH1 0x0 DUP2 MSTORE PUSH1 0x20 ADD PUSH1 0x0 DUP2 MSTORE PUSH1 0x20 ADD PUSH1 0x0 ISZERO ISZERO DUP2 MSTORE POP SWAP1 JUMP INVALID 0x4F PUSH24 0x6E61626C653A206E6577206F776E65722069732074686520 PUSH27 0x65726F2061646472657373536166654D6174683A206D756C746970 PUSH13 0x69636174696F6E206F76657266 PUSH13 0x6F775361666545524332303A20 GASLIMIT MSTORE NUMBER ORIGIN ADDRESS KECCAK256 PUSH16 0x7065726174696F6E20646964206E6F74 KECCAK256 PUSH20 0x756363656564A2646970667358221220A147D535 CALLCODE RETURNDATACOPY 0xC8 0xB1 PUSH22 0x5976AA4062361F52F879BE2280D7F4B63603153B16C9 0xAC PUSH5 0x736F6C6343 STOP MOD MOD STOP CALLER MSTORE8 PUSH2 0x6665 0x4D PUSH2 0x7468 GASPRICE KECCAK256 PUSH14 0x756C7469706C69636174696F6E20 PUSH16 0x766572666C6F77000000000000000000 "
    }
  },
  "interface": [
    {
      "inputs": [
        {
          "internalType": "contract BorealisToken",
          "name": "_bore",
          "type": "address"
        },
        {
          "internalType": "address",
          "name": "_devAddr",
          "type": "address"
        },
        {
          "internalType": "uint256",
          "name": "_boreStartBlock",
          "type": "uint256"
        },
        {
          "internalType": "uint256",
          "name": "_startBlock",
          "type": "uint256"
        },
        {
          "internalType": "uint256",
          "name": "_bonusEndBlock",
          "type": "uint256"
        },
        {
          "internalType": "uint256",
          "name": "_bonusBeforeBulkBlockSize",
          "type": "uint256"
        },
        {
          "internalType": "uint256",
          "name": "_bonusBeforeCommonDifference",
          "type": "uint256"
        },
        {
          "internalType": "uint256",
          "name": "_bonusEndCommonDifference",
          "type": "uint256"
        }
      ],
      "stateMutability": "nonpayable",
      "type": "constructor"
    },
    {
      "anonymous": false,
      "inputs": [
        {
          "indexed": true,
          "internalType": "address",
          "name": "user",
          "type": "address"
        },
        {
          "indexed": true,
          "internalType": "address",
          "name": "poolAddress",
          "type": "address"
        },
        {
          "indexed": false,
          "internalType": "uint256",
          "name": "amount",
          "type": "uint256"
        }
      ],
      "name": "Deposit",
      "type": "event"
    },
    {
      "anonymous": false,
      "inputs": [
        {
          "indexed": true,
          "internalType": "address",
          "name": "user",
          "type": "address"
        },
        {
          "indexed": true,
          "internalType": "address",
          "name": "poolAddress",
          "type": "address"
        },
        {
          "indexed": false,
          "internalType": "uint256",
          "name": "amount",
          "type": "uint256"
        }
      ],
      "name": "EmergencyWithdraw",
      "type": "event"
    },
    {
      "anonymous": false,
      "inputs": [
        {
          "indexed": true,
          "internalType": "address",
          "name": "previousOwner",
          "type": "address"
        },
        {
          "indexed": true,
          "internalType": "address",
          "name": "newOwner",
          "type": "address"
        }
      ],
      "name": "OwnershipTransferred",
      "type": "event"
    },
    {
      "anonymous": false,
      "inputs": [
        {
          "indexed": true,
          "internalType": "address",
          "name": "user",
          "type": "address"
        },
        {
          "indexed": true,
          "internalType": "address",
          "name": "poolAddress",
          "type": "address"
        },
        {
          "indexed": false,
          "internalType": "uint256",
          "name": "amount",
          "type": "uint256"
        }
      ],
      "name": "Withdraw",
      "type": "event"
    },
    {
      "inputs": [],
      "name": "accborePerShareMultiple",
      "outputs": [
        {
          "internalType": "uint256",
          "name": "",
          "type": "uint256"
        }
      ],
      "stateMutability": "view",
      "type": "function"
    },
    {
      "inputs": [
        {
          "internalType": "uint256",
          "name": "_allocPoint",
          "type": "uint256"
        },
        {
          "internalType": "address",
          "name": "_pair",
          "type": "address"
        },
        {
          "internalType": "bool",
          "name": "_withUpdate",
          "type": "bool"
        }
      ],
      "name": "add",
      "outputs": [],
      "stateMutability": "nonpayable",
      "type": "function"
    },
    {
      "inputs": [],
      "name": "bonusBeforeBulkBlockSize",
      "outputs": [
        {
          "internalType": "uint256",
          "name": "",
          "type": "uint256"
        }
      ],
      "stateMutability": "view",
      "type": "function"
    },
    {
      "inputs": [],
      "name": "bonusBeforeCommonDifference",
      "outputs": [
        {
          "internalType": "uint256",
          "name": "",
          "type": "uint256"
        }
      ],
      "stateMutability": "view",
      "type": "function"
    },
    {
      "inputs": [],
      "name": "bonusEndBlock",
      "outputs": [
        {
          "internalType": "uint256",
          "name": "",
          "type": "uint256"
        }
      ],
      "stateMutability": "view",
      "type": "function"
    },
    {
      "inputs": [],
      "name": "bonusEndBulkBlockSize",
      "outputs": [
        {
          "internalType": "uint256",
          "name": "",
          "type": "uint256"
        }
      ],
      "stateMutability": "view",
      "type": "function"
    },
    {
      "inputs": [],
      "name": "bonusEndCommonDifference",
      "outputs": [
        {
          "internalType": "uint256",
          "name": "",
          "type": "uint256"
        }
      ],
      "stateMutability": "view",
      "type": "function"
    },
    {
      "inputs": [],
      "name": "bore",
      "outputs": [
        {
          "internalType": "contract BorealisToken",
          "name": "",
          "type": "address"
        }
      ],
      "stateMutability": "view",
      "type": "function"
    },
    {
      "inputs": [],
      "name": "boreBonusEndBlock",
      "outputs": [
        {
          "internalType": "uint256",
          "name": "",
          "type": "uint256"
        }
      ],
      "stateMutability": "view",
      "type": "function"
    },
    {
      "inputs": [],
      "name": "boreStartBlock",
      "outputs": [
        {
          "internalType": "uint256",
          "name": "",
          "type": "uint256"
        }
      ],
      "stateMutability": "view",
      "type": "function"
    },
    {
      "inputs": [
        {
          "internalType": "address",
          "name": "_pair",
          "type": "address"
        },
        {
          "internalType": "uint256",
          "name": "_amount",
          "type": "uint256"
        }
      ],
      "name": "deposit",
      "outputs": [],
      "stateMutability": "nonpayable",
      "type": "function"
    },
    {
      "inputs": [
        {
          "internalType": "address",
          "name": "_devAddr",
          "type": "address"
        }
      ],
      "name": "dev",
      "outputs": [],
      "stateMutability": "nonpayable",
      "type": "function"
    },
    {
      "inputs": [],
      "name": "devAddr",
      "outputs": [
        {
          "internalType": "address",
          "name": "",
          "type": "address"
        }
      ],
      "stateMutability": "view",
      "type": "function"
    },
    {
      "inputs": [
        {
          "internalType": "address",
          "name": "_pair",
          "type": "address"
        }
      ],
      "name": "emergencyWithdraw",
      "outputs": [],
      "stateMutability": "nonpayable",
      "type": "function"
    },
    {
      "inputs": [
        {
          "internalType": "address",
          "name": "_pair",
          "type": "address"
        }
      ],
      "name": "existsPool",
      "outputs": [
        {
          "internalType": "bool",
          "name": "",
          "type": "bool"
        }
      ],
      "stateMutability": "view",
      "type": "function"
    },
    {
      "inputs": [
        {
          "internalType": "uint256",
          "name": "_from",
          "type": "uint256"
        },
        {
          "internalType": "uint256",
          "name": "_to",
          "type": "uint256"
        }
      ],
      "name": "getTotalRewardInfo",
      "outputs": [
        {
          "internalType": "uint256",
          "name": "totalReward",
          "type": "uint256"
        }
      ],
      "stateMutability": "view",
      "type": "function"
    },
    {
      "inputs": [
        {
          "internalType": "uint256",
          "name": "_from",
          "type": "uint256"
        },
        {
          "internalType": "uint256",
          "name": "_to",
          "type": "uint256"
        },
        {
          "internalType": "uint256",
          "name": "_boreInitBlock",
          "type": "uint256"
        },
        {
          "internalType": "uint256",
          "name": "_bulkBlockSize",
          "type": "uint256"
        },
        {
          "internalType": "uint256",
          "name": "_commonDifference",
          "type": "uint256"
        }
      ],
      "name": "getTotalRewardInfoInSameCommonDifference",
      "outputs": [
        {
          "internalType": "uint256",
          "name": "totalReward",
          "type": "uint256"
        }
      ],
      "stateMutability": "view",
      "type": "function"
    },
    {
      "inputs": [],
      "name": "massUpdatePools",
      "outputs": [],
      "stateMutability": "nonpayable",
      "type": "function"
    },
    {
      "inputs": [],
      "name": "maxRewardBlockNumber",
      "outputs": [
        {
          "internalType": "uint256",
          "name": "",
          "type": "uint256"
        }
      ],
      "stateMutability": "view",
      "type": "function"
    },
    {
      "inputs": [],
      "name": "owner",
      "outputs": [
        {
          "internalType": "address",
          "name": "",
          "type": "address"
        }
      ],
      "stateMutability": "view",
      "type": "function"
    },
    {
      "inputs": [
        {
          "internalType": "address",
          "name": "_pair",
          "type": "address"
        },
        {
          "internalType": "address",
          "name": "_user",
          "type": "address"
        }
      ],
      "name": "pendingbore",
      "outputs": [
        {
          "internalType": "uint256",
          "name": "",
          "type": "uint256"
        }
      ],
      "stateMutability": "view",
      "type": "function"
    },
    {
      "inputs": [
        {
          "internalType": "uint256",
          "name": "",
          "type": "uint256"
        }
      ],
      "name": "poolAddresses",
      "outputs": [
        {
          "internalType": "address",
          "name": "",
          "type": "address"
        }
      ],
      "stateMutability": "view",
      "type": "function"
    },
    {
      "inputs": [
        {
          "internalType": "address",
          "name": "",
          "type": "address"
        }
      ],
      "name": "poolInfoMap",
      "outputs": [
        {
          "internalType": "uint256",
          "name": "allocPoint",
          "type": "uint256"
        },
        {
          "internalType": "uint256",
          "name": "lastRewardBlock",
          "type": "uint256"
        },
        {
          "internalType": "uint256",
          "name": "accborePerShare",
          "type": "uint256"
        },
        {
          "internalType": "bool",
          "name": "exists",
          "type": "bool"
        }
      ],
      "stateMutability": "view",
      "type": "function"
    },
    {
      "inputs": [],
      "name": "poolLength",
      "outputs": [
        {
          "internalType": "uint256",
          "name": "",
          "type": "uint256"
        }
      ],
      "stateMutability": "view",
      "type": "function"
    },
    {
      "inputs": [
        {
          "internalType": "address",
          "name": "",
          "type": "address"
        },
        {
          "internalType": "address",
          "name": "",
          "type": "address"
        }
      ],
      "name": "poolUserInfoMap",
      "outputs": [
        {
          "internalType": "uint256",
          "name": "amount",
          "type": "uint256"
        },
        {
          "internalType": "uint256",
          "name": "rewardDebt",
          "type": "uint256"
        }
      ],
      "stateMutability": "view",
      "type": "function"
    },
    {
      "inputs": [],
      "name": "renounceOwnership",
      "outputs": [],
      "stateMutability": "nonpayable",
      "type": "function"
    },
    {
      "inputs": [
        {
          "internalType": "address",
          "name": "_pair",
          "type": "address"
        },
        {
          "internalType": "uint256",
          "name": "_allocPoint",
          "type": "uint256"
        },
        {
          "internalType": "bool",
          "name": "_withUpdate",
          "type": "bool"
        }
      ],
      "name": "set",
      "outputs": [],
      "stateMutability": "nonpayable",
      "type": "function"
    },
    {
      "inputs": [],
      "name": "startBlock",
      "outputs": [
        {
          "internalType": "uint256",
          "name": "",
          "type": "uint256"
        }
      ],
      "stateMutability": "view",
      "type": "function"
    },
    {
      "inputs": [],
      "name": "totalAllocPoint",
      "outputs": [
        {
          "internalType": "uint256",
          "name": "",
          "type": "uint256"
        }
      ],
      "stateMutability": "view",
      "type": "function"
    },
    {
      "inputs": [
        {
          "internalType": "address",
          "name": "newOwner",
          "type": "address"
        }
      ],
      "name": "transferOwnership",
      "outputs": [],
      "stateMutability": "nonpayable",
      "type": "function"
    },
    {
      "inputs": [
        {
          "internalType": "address",
          "name": "_pair",
          "type": "address"
        }
      ],
      "name": "updatePool",
      "outputs": [],
      "stateMutability": "nonpayable",
      "type": "function"
    },
    {
      "inputs": [
        {
          "internalType": "address",
          "name": "_pair",
          "type": "address"
        },
        {
          "internalType": "uint256",
          "name": "_amount",
          "type": "uint256"
        }
      ],
      "name": "withdraw",
      "outputs": [],
      "stateMutability": "nonpayable",
      "type": "function"
    }
  ]
}